{
  "_format": "hh-sol-artifact-1",
  "contractName": "ERC20Verifier",
  "sourceName": "contracts/ERC20Verifier.sol",
  "abi": [
    {
      "inputs": [
        {
          "internalType": "string",
          "name": "name_",
          "type": "string"
        },
        {
          "internalType": "string",
          "name": "symbol_",
          "type": "string"
        }
      ],
      "stateMutability": "nonpayable",
      "type": "constructor"
    },
    {
      "anonymous": false,
      "inputs": [
        {
          "indexed": true,
          "internalType": "address",
          "name": "owner",
          "type": "address"
        },
        {
          "indexed": true,
          "internalType": "address",
          "name": "spender",
          "type": "address"
        },
        {
          "indexed": false,
          "internalType": "uint256",
          "name": "value",
          "type": "uint256"
        }
      ],
      "name": "Approval",
      "type": "event"
    },
    {
      "anonymous": false,
      "inputs": [
        {
          "indexed": true,
          "internalType": "address",
          "name": "previousOwner",
          "type": "address"
        },
        {
          "indexed": true,
          "internalType": "address",
          "name": "newOwner",
          "type": "address"
        }
      ],
      "name": "OwnershipTransferred",
      "type": "event"
    },
    {
      "anonymous": false,
      "inputs": [
        {
          "indexed": true,
          "internalType": "address",
          "name": "from",
          "type": "address"
        },
        {
          "indexed": true,
          "internalType": "address",
          "name": "to",
          "type": "address"
        },
        {
          "indexed": false,
          "internalType": "uint256",
          "name": "value",
          "type": "uint256"
        }
      ],
      "name": "Transfer",
      "type": "event"
    },
    {
      "inputs": [],
      "name": "TOKEN_AMOUNT_FOR_AIRDROP_PER_ID",
      "outputs": [
        {
          "internalType": "uint256",
          "name": "",
          "type": "uint256"
        }
      ],
      "stateMutability": "view",
      "type": "function"
    },
    {
      "inputs": [],
      "name": "TRANSFER_REQUEST_ID",
      "outputs": [
        {
          "internalType": "uint64",
          "name": "",
          "type": "uint64"
        }
      ],
      "stateMutability": "view",
      "type": "function"
    },
    {
      "inputs": [
        {
          "internalType": "address",
          "name": "",
          "type": "address"
        }
      ],
      "name": "addressToId",
      "outputs": [
        {
          "internalType": "uint256",
          "name": "",
          "type": "uint256"
        }
      ],
      "stateMutability": "view",
      "type": "function"
    },
    {
      "inputs": [
        {
          "internalType": "address",
          "name": "owner",
          "type": "address"
        },
        {
          "internalType": "address",
          "name": "spender",
          "type": "address"
        }
      ],
      "name": "allowance",
      "outputs": [
        {
          "internalType": "uint256",
          "name": "",
          "type": "uint256"
        }
      ],
      "stateMutability": "view",
      "type": "function"
    },
    {
      "inputs": [
        {
          "internalType": "address",
          "name": "spender",
          "type": "address"
        },
        {
          "internalType": "uint256",
          "name": "amount",
          "type": "uint256"
        }
      ],
      "name": "approve",
      "outputs": [
        {
          "internalType": "bool",
          "name": "",
          "type": "bool"
        }
      ],
      "stateMutability": "nonpayable",
      "type": "function"
    },
    {
      "inputs": [
        {
          "internalType": "address",
          "name": "account",
          "type": "address"
        }
      ],
      "name": "balanceOf",
      "outputs": [
        {
          "internalType": "uint256",
          "name": "",
          "type": "uint256"
        }
      ],
      "stateMutability": "view",
      "type": "function"
    },
    {
      "inputs": [],
      "name": "decimals",
      "outputs": [
        {
          "internalType": "uint8",
          "name": "",
          "type": "uint8"
        }
      ],
      "stateMutability": "view",
      "type": "function"
    },
    {
      "inputs": [
        {
          "internalType": "address",
          "name": "spender",
          "type": "address"
        },
        {
          "internalType": "uint256",
          "name": "subtractedValue",
          "type": "uint256"
        }
      ],
      "name": "decreaseAllowance",
      "outputs": [
        {
          "internalType": "bool",
          "name": "",
          "type": "bool"
        }
      ],
      "stateMutability": "nonpayable",
      "type": "function"
    },
    {
      "inputs": [],
      "name": "getSupportedRequests",
      "outputs": [
        {
          "internalType": "uint64[]",
          "name": "arr",
          "type": "uint64[]"
        }
      ],
      "stateMutability": "view",
      "type": "function"
    },
    {
      "inputs": [
        {
          "internalType": "uint64",
          "name": "requestId",
          "type": "uint64"
        }
      ],
      "name": "getZKPRequest",
      "outputs": [
        {
          "components": [
            {
              "internalType": "uint256",
              "name": "schema",
              "type": "uint256"
            },
            {
              "internalType": "uint256",
              "name": "claimPathKey",
              "type": "uint256"
            },
            {
              "internalType": "uint256",
              "name": "operator",
              "type": "uint256"
            },
            {
              "internalType": "uint256[]",
              "name": "value",
              "type": "uint256[]"
            },
            {
              "internalType": "uint256",
              "name": "queryHash",
              "type": "uint256"
            },
            {
              "internalType": "string",
              "name": "circuitId",
              "type": "string"
            }
          ],
          "internalType": "struct ICircuitValidator.CircuitQuery",
          "name": "",
          "type": "tuple"
        }
      ],
      "stateMutability": "view",
      "type": "function"
    },
    {
      "inputs": [
        {
          "internalType": "uint256",
          "name": "",
          "type": "uint256"
        }
      ],
      "name": "idToAddress",
      "outputs": [
        {
          "internalType": "address",
          "name": "",
          "type": "address"
        }
      ],
      "stateMutability": "view",
      "type": "function"
    },
    {
      "inputs": [
        {
          "internalType": "address",
          "name": "spender",
          "type": "address"
        },
        {
          "internalType": "uint256",
          "name": "addedValue",
          "type": "uint256"
        }
      ],
      "name": "increaseAllowance",
      "outputs": [
        {
          "internalType": "bool",
          "name": "",
          "type": "bool"
        }
      ],
      "stateMutability": "nonpayable",
      "type": "function"
    },
    {
      "inputs": [],
      "name": "name",
      "outputs": [
        {
          "internalType": "string",
          "name": "",
          "type": "string"
        }
      ],
      "stateMutability": "view",
      "type": "function"
    },
    {
      "inputs": [],
      "name": "owner",
      "outputs": [
        {
          "internalType": "address",
          "name": "",
          "type": "address"
        }
      ],
      "stateMutability": "view",
      "type": "function"
    },
    {
      "inputs": [
        {
          "internalType": "address",
          "name": "",
          "type": "address"
        },
        {
          "internalType": "uint64",
          "name": "",
          "type": "uint64"
        }
      ],
      "name": "proofs",
      "outputs": [
        {
          "internalType": "bool",
          "name": "",
          "type": "bool"
        }
      ],
      "stateMutability": "view",
      "type": "function"
    },
    {
      "inputs": [],
      "name": "renounceOwnership",
      "outputs": [],
      "stateMutability": "nonpayable",
      "type": "function"
    },
    {
      "inputs": [
        {
          "internalType": "uint64",
          "name": "",
          "type": "uint64"
        }
      ],
      "name": "requestQueries",
      "outputs": [
        {
          "internalType": "uint256",
          "name": "schema",
          "type": "uint256"
        },
        {
          "internalType": "uint256",
          "name": "claimPathKey",
          "type": "uint256"
        },
        {
          "internalType": "uint256",
          "name": "operator",
          "type": "uint256"
        },
        {
          "internalType": "uint256",
          "name": "queryHash",
          "type": "uint256"
        },
        {
          "internalType": "string",
          "name": "circuitId",
          "type": "string"
        }
      ],
      "stateMutability": "view",
      "type": "function"
    },
    {
      "inputs": [
        {
          "internalType": "uint64",
          "name": "",
          "type": "uint64"
        }
      ],
      "name": "requestValidators",
      "outputs": [
        {
          "internalType": "contract ICircuitValidator",
          "name": "",
          "type": "address"
        }
      ],
      "stateMutability": "view",
      "type": "function"
    },
    {
      "inputs": [
        {
          "internalType": "uint64",
          "name": "requestId",
          "type": "uint64"
        },
        {
          "internalType": "contract ICircuitValidator",
          "name": "validator",
          "type": "address"
        },
        {
          "internalType": "uint256",
          "name": "schema",
          "type": "uint256"
        },
        {
          "internalType": "uint256",
          "name": "claimPathKey",
          "type": "uint256"
        },
        {
          "internalType": "uint256",
          "name": "operator",
          "type": "uint256"
        },
        {
          "internalType": "uint256[]",
          "name": "value",
          "type": "uint256[]"
        }
      ],
      "name": "setZKPRequest",
      "outputs": [
        {
          "internalType": "bool",
          "name": "",
          "type": "bool"
        }
      ],
      "stateMutability": "nonpayable",
      "type": "function"
    },
    {
      "inputs": [
        {
          "internalType": "uint64",
          "name": "requestId",
          "type": "uint64"
        },
        {
          "internalType": "contract ICircuitValidator",
          "name": "validator",
          "type": "address"
        },
        {
          "internalType": "uint256",
          "name": "schema",
          "type": "uint256"
        },
        {
          "internalType": "uint256",
          "name": "claimPathKey",
          "type": "uint256"
        },
        {
          "internalType": "uint256",
          "name": "operator",
          "type": "uint256"
        },
        {
          "internalType": "uint256[]",
          "name": "value",
          "type": "uint256[]"
        },
        {
          "internalType": "uint256",
          "name": "queryHash",
          "type": "uint256"
        }
      ],
      "name": "setZKPRequestRaw",
      "outputs": [
        {
          "internalType": "bool",
          "name": "",
          "type": "bool"
        }
      ],
      "stateMutability": "nonpayable",
      "type": "function"
    },
    {
      "inputs": [
        {
          "internalType": "uint64",
          "name": "requestId",
          "type": "uint64"
        },
        {
          "internalType": "uint256[]",
          "name": "inputs",
          "type": "uint256[]"
        },
        {
          "internalType": "uint256[2]",
          "name": "a",
          "type": "uint256[2]"
        },
        {
          "internalType": "uint256[2][2]",
          "name": "b",
          "type": "uint256[2][2]"
        },
        {
          "internalType": "uint256[2]",
          "name": "c",
          "type": "uint256[2]"
        }
      ],
      "name": "submitZKPResponse",
      "outputs": [
        {
          "internalType": "bool",
          "name": "",
          "type": "bool"
        }
      ],
      "stateMutability": "nonpayable",
      "type": "function"
    },
    {
      "inputs": [],
      "name": "symbol",
      "outputs": [
        {
          "internalType": "string",
          "name": "",
          "type": "string"
        }
      ],
      "stateMutability": "view",
      "type": "function"
    },
    {
      "inputs": [],
      "name": "totalSupply",
      "outputs": [
        {
          "internalType": "uint256",
          "name": "",
          "type": "uint256"
        }
      ],
      "stateMutability": "view",
      "type": "function"
    },
    {
      "inputs": [
        {
          "internalType": "address",
          "name": "to",
          "type": "address"
        },
        {
          "internalType": "uint256",
          "name": "amount",
          "type": "uint256"
        }
      ],
      "name": "transfer",
      "outputs": [
        {
          "internalType": "bool",
          "name": "",
          "type": "bool"
        }
      ],
      "stateMutability": "nonpayable",
      "type": "function"
    },
    {
      "inputs": [
        {
          "internalType": "address",
          "name": "from",
          "type": "address"
        },
        {
          "internalType": "address",
          "name": "to",
          "type": "address"
        },
        {
          "internalType": "uint256",
          "name": "amount",
          "type": "uint256"
        }
      ],
      "name": "transferFrom",
      "outputs": [
        {
          "internalType": "bool",
          "name": "",
          "type": "bool"
        }
      ],
      "stateMutability": "nonpayable",
      "type": "function"
    },
    {
      "inputs": [
        {
          "internalType": "address",
          "name": "newOwner",
          "type": "address"
        }
      ],
      "name": "transferOwnership",
      "outputs": [],
      "stateMutability": "nonpayable",
      "type": "function"
    }
  ],
  "bytecode": "0x608060405262000014620000b960201b60201c565b60ff16600a6200002591906200031d565b60056200003391906200036e565b600c553480156200004357600080fd5b50604051620047e5380380620047e583398181016040528101906200006991906200054c565b818181600390816200007c919062000812565b5080600490816200008e919062000812565b505050620000b1620000a5620000c260201b60201c565b620000ca60201b60201c565b5050620008f9565b60006012905090565b600033905090565b6000600560009054906101000a900473ffffffffffffffffffffffffffffffffffffffff16905081600560006101000a81548173ffffffffffffffffffffffffffffffffffffffff021916908373ffffffffffffffffffffffffffffffffffffffff1602179055508173ffffffffffffffffffffffffffffffffffffffff168173ffffffffffffffffffffffffffffffffffffffff167f8be0079c531659141344cd1fd0a4f28419497f9722a3daafe3b4186f6b6457e060405160405180910390a35050565b7f4e487b7100000000000000000000000000000000000000000000000000000000600052601160045260246000fd5b60008160011c9050919050565b6000808291508390505b60018511156200021e57808604811115620001f657620001f562000190565b5b6001851615620002065780820291505b80810290506200021685620001bf565b9450620001d6565b94509492505050565b6000826200023957600190506200030c565b816200024957600090506200030c565b81600181146200026257600281146200026d57620002a3565b60019150506200030c565b60ff84111562000282576200028162000190565b5b8360020a9150848211156200029c576200029b62000190565b5b506200030c565b5060208310610133831016604e8410600b8410161715620002dd5782820a905083811115620002d757620002d662000190565b5b6200030c565b620002ec8484846001620001cc565b9250905081840481111562000306576200030562000190565b5b81810290505b9392505050565b6000819050919050565b60006200032a8262000313565b9150620003378362000313565b9250620003667fffffffffffffffffffffffffffffffffffffffffffffffffffffffffffffffff848462000227565b905092915050565b60006200037b8262000313565b9150620003888362000313565b9250828202620003988162000313565b91508282048414831517620003b257620003b162000190565b5b5092915050565b6000604051905090565b600080fd5b600080fd5b600080fd5b600080fd5b6000601f19601f8301169050919050565b7f4e487b7100000000000000000000000000000000000000000000000000000000600052604160045260246000fd5b6200042282620003d7565b810181811067ffffffffffffffff82111715620004445762000443620003e8565b5b80604052505050565b600062000459620003b9565b905062000467828262000417565b919050565b600067ffffffffffffffff8211156200048a5762000489620003e8565b5b6200049582620003d7565b9050602081019050919050565b60005b83811015620004c2578082015181840152602081019050620004a5565b60008484015250505050565b6000620004e5620004df846200046c565b6200044d565b905082815260208101848484011115620005045762000503620003d2565b5b62000511848285620004a2565b509392505050565b600082601f830112620005315762000530620003cd565b5b815162000543848260208601620004ce565b91505092915050565b60008060408385031215620005665762000565620003c3565b5b600083015167ffffffffffffffff811115620005875762000586620003c8565b5b620005958582860162000519565b925050602083015167ffffffffffffffff811115620005b957620005b8620003c8565b5b620005c78582860162000519565b9150509250929050565b600081519050919050565b7f4e487b7100000000000000000000000000000000000000000000000000000000600052602260045260246000fd5b600060028204905060018216806200062457607f821691505b6020821081036200063a5762000639620005dc565b5b50919050565b60008190508160005260206000209050919050565b60006020601f8301049050919050565b600082821b905092915050565b600060088302620006a47fffffffffffffffffffffffffffffffffffffffffffffffffffffffffffffffff8262000665565b620006b0868362000665565b95508019841693508086168417925050509392505050565b6000819050919050565b6000620006f3620006ed620006e78462000313565b620006c8565b62000313565b9050919050565b6000819050919050565b6200070f83620006d2565b620007276200071e82620006fa565b84845462000672565b825550505050565b600090565b6200073e6200072f565b6200074b81848462000704565b505050565b5b8181101562000773576200076760008262000734565b60018101905062000751565b5050565b601f821115620007c2576200078c8162000640565b620007978462000655565b81016020851015620007a7578190505b620007bf620007b68562000655565b83018262000750565b50505b505050565b600082821c905092915050565b6000620007e760001984600802620007c7565b1980831691505092915050565b6000620008028383620007d4565b9150826002028217905092915050565b6200081d82620005d1565b67ffffffffffffffff811115620008395762000838620003e8565b5b6200084582546200060b565b6200085282828562000777565b600060209050601f8311600181146200088a576000841562000875578287015190505b620008818582620007f4565b865550620008f1565b601f1984166200089a8662000640565b60005b82811015620008c4578489015182556001820191506020850194506020810190506200089d565b86831015620008e45784890151620008e0601f891682620007d4565b8355505b6001600288020188555050505b505050505050565b613edc80620009096000396000f3fe608060405234801561001057600080fd5b506004361061018e5760003560e01c806395d89b41116100de578063a9059cbb11610097578063c76d084511610071578063c76d084514610501578063cb0e0d7d14610531578063dd62ed3e14610561578063f2fde38b146105915761018e565b8063a9059cbb14610471578063b45c0fdf146104a1578063b68967e2146104d15761018e565b806395d89b411461035f57806396bf47411461037d5780639abdc645146103b15780639e621bcf146103e1578063a457c2d714610411578063a8723114146104415761018e565b806337ba95231161014b5780637042f36b116101255780637042f36b146102e957806370a0823114610307578063715018a6146103375780638da5cb5b146103415761018e565b806337ba95231461027d578063395093511461029b57806363ec508f146102cb5761018e565b806306fdde0314610193578063095ea7b3146101b157806318160ddd146101e157806323b872dd146101ff5780632a2d0c471461022f578063313ce5671461025f575b600080fd5b61019b6105ad565b6040516101a891906123c3565b60405180910390f35b6101cb60048036038101906101c6919061248d565b61063f565b6040516101d891906124e8565b60405180910390f35b6101e9610662565b6040516101f69190612512565b60405180910390f35b6102196004803603810190610214919061252d565b61066c565b60405161022691906124e8565b60405180910390f35b61024960048036038101906102449190612580565b61069b565b60405161025691906125bc565b60405180910390f35b6102676106ce565b60405161027491906125f3565b60405180910390f35b6102856106d7565b60405161029291906126e0565b60405180910390f35b6102b560048036038101906102b0919061248d565b610763565b6040516102c291906124e8565b60405180910390f35b6102d361079a565b6040516102e09190612711565b60405180910390f35b6102f161079f565b6040516102fe9190612512565b60405180910390f35b610321600480360381019061031c919061272c565b6107a5565b60405161032e9190612512565b60405180910390f35b61033f6107ed565b005b610349610801565b60405161035691906125bc565b60405180910390f35b61036761082b565b60405161037491906123c3565b60405180910390f35b61039760048036038101906103929190612785565b6108bd565b6040516103a89594939291906127b2565b60405180910390f35b6103cb60048036038101906103c691906128af565b61097b565b6040516103d891906124e8565b60405180910390f35b6103fb60048036038101906103f6919061295e565b610acc565b60405161040891906124e8565b60405180910390f35b61042b6004803603810190610426919061248d565b610dbf565b60405161043891906124e8565b60405180910390f35b61045b60048036038101906104569190612785565b610e36565b6040516104689190612a7f565b60405180910390f35b61048b6004803603810190610486919061248d565b610e69565b60405161049891906124e8565b60405180910390f35b6104bb60048036038101906104b69190612a9a565b610e8c565b6040516104c891906124e8565b60405180910390f35b6104eb60048036038101906104e69190612b1e565b610ebb565b6040516104f891906124e8565b60405180910390f35b61051b60048036038101906105169190612785565b6112c4565b6040516105289190612d52565b60405180910390f35b61054b6004803603810190610546919061272c565b611417565b6040516105589190612512565b60405180910390f35b61057b60048036038101906105769190612d74565b61142f565b6040516105889190612512565b60405180910390f35b6105ab60048036038101906105a6919061272c565b6114b6565b005b6060600380546105bc90612de3565b80601f01602080910402602001604051908101604052809291908181526020018280546105e890612de3565b80156106355780601f1061060a57610100808354040283529160200191610635565b820191906000526020600020905b81548152906001019060200180831161061857829003601f168201915b5050505050905090565b60008061064a611539565b9050610657818585611541565b600191505092915050565b6000600254905090565b600080610677611539565b905061068485828561170a565b61068f858585611796565b60019150509392505050565b600a6020528060005260406000206000915054906101000a900473ffffffffffffffffffffffffffffffffffffffff1681565b60006012905090565b6060600980548060200260200160405190810160405280929190818152602001828054801561075957602002820191906000526020600020906000905b82829054906101000a900467ffffffffffffffff1667ffffffffffffffff16815260200190600801906020826007010492830192600103820291508084116107145790505b5050505050905090565b60008061076e611539565b905061078f818585610780858961142f565b61078a9190612e43565b611541565b600191505092915050565b600181565b600c5481565b60008060008373ffffffffffffffffffffffffffffffffffffffff1673ffffffffffffffffffffffffffffffffffffffff168152602001908152602001600020549050919050565b6107f5611a0c565b6107ff6000611a8a565b565b6000600560009054906101000a900473ffffffffffffffffffffffffffffffffffffffff16905090565b60606004805461083a90612de3565b80601f016020809104026020016040519081016040528092919081815260200182805461086690612de3565b80156108b35780601f10610888576101008083540402835291602001916108b3565b820191906000526020600020905b81548152906001019060200180831161089657829003601f168201915b5050505050905090565b60076020528060005260406000206000915090508060000154908060010154908060020154908060040154908060050180546108f890612de3565b80601f016020809104026020016040519081016040528092919081815260200182805461092490612de3565b80156109715780601f1061094657610100808354040283529160200191610971565b820191906000526020600020905b81548152906001019060200180831161095457829003601f168201915b5050505050905085565b6000610985611a0c565b600073__$933e38ee1bac859086d8d4e5388b6d5e5f$__6340ec6e4985856040518363ffffffff1660e01b81526004016109c0929190612ef2565b602060405180830381865af41580156109dd573d6000803e3d6000fd5b505050506040513d601f19601f82011682018060405250810190610a019190612f2b565b9050600073__$149ddb96bf5d692e763ea65f305faba249$__63f5b4a7886040518060c001604052808b8152602001600081526020018981526020018a815260200160008152602001858152506040518263ffffffff1660e01b8152600401610a6a9190613003565b602060405180830381865af4158015610a87573d6000803e3d6000fd5b505050506040513d601f19601f82011682018060405250810190610aab9190612f2b565b9050610abd8a8a8a8a8a8a8a88610acc565b92505050979650505050505050565b6000610ad6611a0c565b600073ffffffffffffffffffffffffffffffffffffffff16600860008b67ffffffffffffffff1667ffffffffffffffff16815260200190815260200160002060009054906101000a900473ffffffffffffffffffffffffffffffffffffffff1673ffffffffffffffffffffffffffffffffffffffff1603610ba85760098990806001815401808255809150506001900390600052602060002090600491828204019190066008029091909190916101000a81548167ffffffffffffffff021916908367ffffffffffffffff1602179055505b81600760008b67ffffffffffffffff1667ffffffffffffffff1681526020019081526020016000206004018190555084600760008b67ffffffffffffffff1667ffffffffffffffff168152602001908152602001600020600201819055508773ffffffffffffffffffffffffffffffffffffffff166359a2aeaa6040518163ffffffff1660e01b8152600401600060405180830381865afa158015610c51573d6000803e3d6000fd5b505050506040513d6000823e3d601f19601f82011682018060405250810190610c7a919061313f565b600760008b67ffffffffffffffff1667ffffffffffffffff1681526020019081526020016000206005019081610cb0919061332a565b5085600760008b67ffffffffffffffff1667ffffffffffffffff1681526020019081526020016000206001018190555086600760008b67ffffffffffffffff1667ffffffffffffffff168152602001908152602001600020600001819055508383600760008c67ffffffffffffffff1667ffffffffffffffff1681526020019081526020016000206003019190610d48929190612293565b5087600860008b67ffffffffffffffff1667ffffffffffffffff16815260200190815260200160002060006101000a81548173ffffffffffffffffffffffffffffffffffffffff021916908373ffffffffffffffffffffffffffffffffffffffff1602179055506001905098975050505050505050565b600080610dca611539565b90506000610dd8828661142f565b905083811015610e1d576040517f08c379a0000000000000000000000000000000000000000000000000000000008152600401610e149061346e565b60405180910390fd5b610e2a8286868403611541565b60019250505092915050565b60086020528060005260406000206000915054906101000a900473ffffffffffffffffffffffffffffffffffffffff1681565b600080610e74611539565b9050610e81818585611796565b600191505092915050565b60066020528160005260406000206020528060005260406000206000915091509054906101000a900460ff1681565b60008073ffffffffffffffffffffffffffffffffffffffff16600860008967ffffffffffffffff1667ffffffffffffffff16815260200190815260200160002060009054906101000a900473ffffffffffffffffffffffffffffffffffffffff1673ffffffffffffffffffffffffffffffffffffffff1603610f72576040517f08c379a0000000000000000000000000000000000000000000000000000000008152600401610f6990613500565b60405180910390fd5b6000600760008967ffffffffffffffff1667ffffffffffffffff1681526020019081526020016000206004015403610fdf576040517f08c379a0000000000000000000000000000000000000000000000000000000008152600401610fd690613592565b60405180910390fd5b61107287878780806020026020016040519081016040528093929190818152602001838360200280828437600081840152601f19601f82011690508083019250505050505050600860008b67ffffffffffffffff1667ffffffffffffffff16815260200190815260200160002060009054906101000a900473ffffffffffffffffffffffffffffffffffffffff16611b50565b600860008867ffffffffffffffff1667ffffffffffffffff16815260200190815260200160002060009054906101000a900473ffffffffffffffffffffffffffffffffffffffff1673ffffffffffffffffffffffffffffffffffffffff1663434661ef8787878787600760008f67ffffffffffffffff1667ffffffffffffffff168152602001908152602001600020600401546040518763ffffffff1660e01b8152600401611126969594939291906136ee565b602060405180830381865afa158015611143573d6000803e3d6000fd5b505050506040513d601f19601f820116820180604052508101906111679190613778565b6111a6576040517f08c379a000000000000000000000000000000000000000000000000000000000815260040161119d906137f1565b60405180910390fd5b6001600660003373ffffffffffffffffffffffffffffffffffffffff1673ffffffffffffffffffffffffffffffffffffffff16815260200190815260200160002060008967ffffffffffffffff1667ffffffffffffffff16815260200190815260200160002060006101000a81548160ff0219169083151502179055506112b687878780806020026020016040519081016040528093929190818152602001838360200280828437600081840152601f19601f82011690508083019250505050505050600860008b67ffffffffffffffff1667ffffffffffffffff16815260200190815260200160002060009054906101000a900473ffffffffffffffffffffffffffffffffffffffff16611c60565b600190509695505050505050565b6112cc6122e0565b600760008367ffffffffffffffff1667ffffffffffffffff1681526020019081526020016000206040518060c00160405290816000820154815260200160018201548152602001600282015481526020016003820180548060200260200160405190810160405280929190818152602001828054801561136b57602002820191906000526020600020905b815481526020019060010190808311611357575b505050505081526020016004820154815260200160058201805461138e90612de3565b80601f01602080910402602001604051908101604052809291908181526020018280546113ba90612de3565b80156114075780601f106113dc57610100808354040283529160200191611407565b820191906000526020600020905b8154815290600101906020018083116113ea57829003601f168201915b5050505050815250509050919050565b600b6020528060005260406000206000915090505481565b6000600160008473ffffffffffffffffffffffffffffffffffffffff1673ffffffffffffffffffffffffffffffffffffffff16815260200190815260200160002060008373ffffffffffffffffffffffffffffffffffffffff1673ffffffffffffffffffffffffffffffffffffffff16815260200190815260200160002054905092915050565b6114be611a0c565b600073ffffffffffffffffffffffffffffffffffffffff168173ffffffffffffffffffffffffffffffffffffffff160361152d576040517f08c379a000000000000000000000000000000000000000000000000000000000815260040161152490613883565b60405180910390fd5b61153681611a8a565b50565b600033905090565b600073ffffffffffffffffffffffffffffffffffffffff168373ffffffffffffffffffffffffffffffffffffffff16036115b0576040517f08c379a00000000000000000000000000000000000000000000000000000000081526004016115a790613915565b60405180910390fd5b600073ffffffffffffffffffffffffffffffffffffffff168273ffffffffffffffffffffffffffffffffffffffff160361161f576040517f08c379a0000000000000000000000000000000000000000000000000000000008152600401611616906139a7565b60405180910390fd5b80600160008573ffffffffffffffffffffffffffffffffffffffff1673ffffffffffffffffffffffffffffffffffffffff16815260200190815260200160002060008473ffffffffffffffffffffffffffffffffffffffff1673ffffffffffffffffffffffffffffffffffffffff168152602001908152602001600020819055508173ffffffffffffffffffffffffffffffffffffffff168373ffffffffffffffffffffffffffffffffffffffff167f8c5be1e5ebec7d5bd14f71427d1e84f3dd0314c0f7b2291e5b200ac8c7c3b925836040516116fd9190612512565b60405180910390a3505050565b6000611716848461142f565b90507fffffffffffffffffffffffffffffffffffffffffffffffffffffffffffffffff81146117905781811015611782576040517f08c379a000000000000000000000000000000000000000000000000000000000815260040161177990613a13565b60405180910390fd5b61178f8484848403611541565b5b50505050565b600073ffffffffffffffffffffffffffffffffffffffff168373ffffffffffffffffffffffffffffffffffffffff1603611805576040517f08c379a00000000000000000000000000000000000000000000000000000000081526004016117fc90613aa5565b60405180910390fd5b600073ffffffffffffffffffffffffffffffffffffffff168273ffffffffffffffffffffffffffffffffffffffff1603611874576040517f08c379a000000000000000000000000000000000000000000000000000000000815260040161186b90613b37565b60405180910390fd5b61187f838383611ea1565b60008060008573ffffffffffffffffffffffffffffffffffffffff1673ffffffffffffffffffffffffffffffffffffffff16815260200190815260200160002054905081811015611905576040517f08c379a00000000000000000000000000000000000000000000000000000000081526004016118fc90613bc9565b60405180910390fd5b8181036000808673ffffffffffffffffffffffffffffffffffffffff1673ffffffffffffffffffffffffffffffffffffffff16815260200190815260200160002081905550816000808573ffffffffffffffffffffffffffffffffffffffff1673ffffffffffffffffffffffffffffffffffffffff168152602001908152602001600020600082825401925050819055508273ffffffffffffffffffffffffffffffffffffffff168473ffffffffffffffffffffffffffffffffffffffff167fddf252ad1be2c89b69c2b068fc378daa952ba7f163c4a11628f55a4df523b3ef846040516119f39190612512565b60405180910390a3611a06848484611f5f565b50505050565b611a14611539565b73ffffffffffffffffffffffffffffffffffffffff16611a32610801565b73ffffffffffffffffffffffffffffffffffffffff1614611a88576040517f08c379a0000000000000000000000000000000000000000000000000000000008152600401611a7f90613c35565b60405180910390fd5b565b6000600560009054906101000a900473ffffffffffffffffffffffffffffffffffffffff16905081600560006101000a81548173ffffffffffffffffffffffffffffffffffffffff021916908373ffffffffffffffffffffffffffffffffffffffff1602179055508173ffffffffffffffffffffffffffffffffffffffff168173ffffffffffffffffffffffffffffffffffffffff167f8be0079c531659141344cd1fd0a4f28419497f9722a3daafe3b4186f6b6457e060405160405180910390a35050565b6000611be3838373ffffffffffffffffffffffffffffffffffffffff16639f442afa6040518163ffffffff1660e01b8152600401602060405180830381865afa158015611ba1573d6000803e3d6000fd5b505050506040513d601f19601f82011682018060405250810190611bc59190612f2b565b81518110611bd657611bd5613c55565b5b6020026020010151611f64565b90508073ffffffffffffffffffffffffffffffffffffffff16611c04611539565b73ffffffffffffffffffffffffffffffffffffffff1614611c5a576040517f08c379a0000000000000000000000000000000000000000000000000000000008152600401611c5190613cf6565b60405180910390fd5b50505050565b600167ffffffffffffffff168367ffffffffffffffff16148015611cca57506000600b6000611c8d611539565b73ffffffffffffffffffffffffffffffffffffffff1673ffffffffffffffffffffffffffffffffffffffff16815260200190815260200160002054145b611d09576040517f08c379a0000000000000000000000000000000000000000000000000000000008152600401611d0090613d88565b60405180910390fd5b600082600181518110611d1f57611d1e613c55565b5b60200260200101519050600073ffffffffffffffffffffffffffffffffffffffff16600a600083815260200190815260200160002060009054906101000a900473ffffffffffffffffffffffffffffffffffffffff1673ffffffffffffffffffffffffffffffffffffffff16148015611dde57506000600b6000611da1611539565b73ffffffffffffffffffffffffffffffffffffffff1673ffffffffffffffffffffffffffffffffffffffff16815260200190815260200160002054145b15611e9b57611df6611dee611539565b600c54611f86565b80600b6000611e03611539565b73ffffffffffffffffffffffffffffffffffffffff1673ffffffffffffffffffffffffffffffffffffffff16815260200190815260200160002081905550611e49611539565b600a600083815260200190815260200160002060006101000a81548173ffffffffffffffffffffffffffffffffffffffff021916908373ffffffffffffffffffffffffffffffffffffffff1602179055505b50505050565b60011515600660008473ffffffffffffffffffffffffffffffffffffffff1673ffffffffffffffffffffffffffffffffffffffff1681526020019081526020016000206000600167ffffffffffffffff1667ffffffffffffffff16815260200190815260200160002060009054906101000a900460ff16151514611f5a576040517f08c379a0000000000000000000000000000000000000000000000000000000008152600401611f5190613e1a565b60405180910390fd5b505050565b505050565b6000611f7f611f7a611f75846120dc565b612228565b612285565b9050919050565b600073ffffffffffffffffffffffffffffffffffffffff168273ffffffffffffffffffffffffffffffffffffffff1603611ff5576040517f08c379a0000000000000000000000000000000000000000000000000000000008152600401611fec90613e86565b60405180910390fd5b61200160008383611ea1565b80600260008282546120139190612e43565b92505081905550806000808473ffffffffffffffffffffffffffffffffffffffff1673ffffffffffffffffffffffffffffffffffffffff168152602001908152602001600020600082825401925050819055508173ffffffffffffffffffffffffffffffffffffffff16600073ffffffffffffffffffffffffffffffffffffffff167fddf252ad1be2c89b69c2b068fc378daa952ba7f163c4a11628f55a4df523b3ef836040516120c49190612512565b60405180910390a36120d860008383611f5f565b5050565b600081905060087eff00ff00ff00ff00ff00ff00ff00ff00ff00ff00ff00ff00ff00ff00ff00ff8216901b60087fff00ff00ff00ff00ff00ff00ff00ff00ff00ff00ff00ff00ff00ff00ff00ff008316901c17905060107dffff0000ffff0000ffff0000ffff0000ffff0000ffff0000ffff0000ffff8216901b60107fffff0000ffff0000ffff0000ffff0000ffff0000ffff0000ffff0000ffff00008316901c17905060207bffffffff00000000ffffffff00000000ffffffff00000000ffffffff8216901b60207fffffffff00000000ffffffff00000000ffffffff00000000ffffffff000000008316901c179050604077ffffffffffffffff0000000000000000ffffffffffffffff8216901b60407fffffffffffffffff0000000000000000ffffffffffffffff00000000000000008316901c179050608081901b608082901c179050919050565b6060602067ffffffffffffffff81111561224557612244613023565b5b6040519080825280601f01601f1916602001820160405280156122775781602001600182028036833780820191505090505b509050816020820152919050565b600060148201519050919050565b8280548282559060005260206000209081019282156122cf579160200282015b828111156122ce5782358255916020019190600101906122b3565b5b5090506122dc9190612316565b5090565b6040518060c001604052806000815260200160008152602001600081526020016060815260200160008152602001606081525090565b5b8082111561232f576000816000905550600101612317565b5090565b600081519050919050565b600082825260208201905092915050565b60005b8381101561236d578082015181840152602081019050612352565b60008484015250505050565b6000601f19601f8301169050919050565b600061239582612333565b61239f818561233e565b93506123af81856020860161234f565b6123b881612379565b840191505092915050565b600060208201905081810360008301526123dd818461238a565b905092915050565b6000604051905090565b600080fd5b600080fd5b600073ffffffffffffffffffffffffffffffffffffffff82169050919050565b6000612424826123f9565b9050919050565b61243481612419565b811461243f57600080fd5b50565b6000813590506124518161242b565b92915050565b6000819050919050565b61246a81612457565b811461247557600080fd5b50565b60008135905061248781612461565b92915050565b600080604083850312156124a4576124a36123ef565b5b60006124b285828601612442565b92505060206124c385828601612478565b9150509250929050565b60008115159050919050565b6124e2816124cd565b82525050565b60006020820190506124fd60008301846124d9565b92915050565b61250c81612457565b82525050565b60006020820190506125276000830184612503565b92915050565b600080600060608486031215612546576125456123ef565b5b600061255486828701612442565b935050602061256586828701612442565b925050604061257686828701612478565b9150509250925092565b600060208284031215612596576125956123ef565b5b60006125a484828501612478565b91505092915050565b6125b681612419565b82525050565b60006020820190506125d160008301846125ad565b92915050565b600060ff82169050919050565b6125ed816125d7565b82525050565b600060208201905061260860008301846125e4565b92915050565b600081519050919050565b600082825260208201905092915050565b6000819050602082019050919050565b600067ffffffffffffffff82169050919050565b6126578161263a565b82525050565b6000612669838361264e565b60208301905092915050565b6000602082019050919050565b600061268d8261260e565b6126978185612619565b93506126a28361262a565b8060005b838110156126d35781516126ba888261265d565b97506126c583612675565b9250506001810190506126a6565b5085935050505092915050565b600060208201905081810360008301526126fa8184612682565b905092915050565b61270b8161263a565b82525050565b60006020820190506127266000830184612702565b92915050565b600060208284031215612742576127416123ef565b5b600061275084828501612442565b91505092915050565b6127628161263a565b811461276d57600080fd5b50565b60008135905061277f81612759565b92915050565b60006020828403121561279b5761279a6123ef565b5b60006127a984828501612770565b91505092915050565b600060a0820190506127c76000830188612503565b6127d46020830187612503565b6127e16040830186612503565b6127ee6060830185612503565b8181036080830152612800818461238a565b90509695505050505050565b600061281782612419565b9050919050565b6128278161280c565b811461283257600080fd5b50565b6000813590506128448161281e565b92915050565b600080fd5b600080fd5b600080fd5b60008083601f84011261286f5761286e61284a565b5b8235905067ffffffffffffffff81111561288c5761288b61284f565b5b6020830191508360208202830111156128a8576128a7612854565b5b9250929050565b600080600080600080600060c0888a0312156128ce576128cd6123ef565b5b60006128dc8a828b01612770565b97505060206128ed8a828b01612835565b96505060406128fe8a828b01612478565b955050606061290f8a828b01612478565b94505060806129208a828b01612478565b93505060a088013567ffffffffffffffff811115612941576129406123f4565b5b61294d8a828b01612859565b925092505092959891949750929550565b60008060008060008060008060e0898b03121561297e5761297d6123ef565b5b600061298c8b828c01612770565b985050602061299d8b828c01612835565b97505060406129ae8b828c01612478565b96505060606129bf8b828c01612478565b95505060806129d08b828c01612478565b94505060a089013567ffffffffffffffff8111156129f1576129f06123f4565b5b6129fd8b828c01612859565b935093505060c0612a108b828c01612478565b9150509295985092959890939650565b6000819050919050565b6000612a45612a40612a3b846123f9565b612a20565b6123f9565b9050919050565b6000612a5782612a2a565b9050919050565b6000612a6982612a4c565b9050919050565b612a7981612a5e565b82525050565b6000602082019050612a946000830184612a70565b92915050565b60008060408385031215612ab157612ab06123ef565b5b6000612abf85828601612442565b9250506020612ad085828601612770565b9150509250929050565b600081905082602060020282011115612af657612af5612854565b5b92915050565b600081905082604060020282011115612b1857612b17612854565b5b92915050565b6000806000806000806101408789031215612b3c57612b3b6123ef565b5b6000612b4a89828a01612770565b965050602087013567ffffffffffffffff811115612b6b57612b6a6123f4565b5b612b7789828a01612859565b95509550506040612b8a89828a01612ada565b9350506080612b9b89828a01612afc565b925050610100612bad89828a01612ada565b9150509295509295509295565b612bc381612457565b82525050565b600081519050919050565b600082825260208201905092915050565b6000819050602082019050919050565b6000612c018383612bba565b60208301905092915050565b6000602082019050919050565b6000612c2582612bc9565b612c2f8185612bd4565b9350612c3a83612be5565b8060005b83811015612c6b578151612c528882612bf5565b9750612c5d83612c0d565b925050600181019050612c3e565b5085935050505092915050565b600082825260208201905092915050565b6000612c9482612333565b612c9e8185612c78565b9350612cae81856020860161234f565b612cb781612379565b840191505092915050565b600060c083016000830151612cda6000860182612bba565b506020830151612ced6020860182612bba565b506040830151612d006040860182612bba565b5060608301518482036060860152612d188282612c1a565b9150506080830151612d2d6080860182612bba565b5060a083015184820360a0860152612d458282612c89565b9150508091505092915050565b60006020820190508181036000830152612d6c8184612cc2565b905092915050565b60008060408385031215612d8b57612d8a6123ef565b5b6000612d9985828601612442565b9250506020612daa85828601612442565b9150509250929050565b7f4e487b7100000000000000000000000000000000000000000000000000000000600052602260045260246000fd5b60006002820490506001821680612dfb57607f821691505b602082108103612e0e57612e0d612db4565b5b50919050565b7f4e487b7100000000000000000000000000000000000000000000000000000000600052601160045260246000fd5b6000612e4e82612457565b9150612e5983612457565b9250828201905080821115612e7157612e70612e14565b5b92915050565b600082825260208201905092915050565b600080fd5b82818337505050565b6000612ea28385612e77565b93507f07ffffffffffffffffffffffffffffffffffffffffffffffffffffffffffffff831115612ed557612ed4612e88565b5b602083029250612ee6838584612e8d565b82840190509392505050565b60006020820190508181036000830152612f0d818486612e96565b90509392505050565b600081519050612f2581612461565b92915050565b600060208284031215612f4157612f406123ef565b5b6000612f4f84828501612f16565b91505092915050565b600060069050919050565b600081905092915050565b6000819050919050565b612f8181612457565b82525050565b6000612f938383612f78565b60208301905092915050565b6000602082019050919050565b612fb581612f58565b612fbf8184612f63565b9250612fca82612f6e565b8060005b83811015612ffb578151612fe28782612f87565b9650612fed83612f9f565b925050600181019050612fce565b505050505050565b600060c0820190506130186000830184612fac565b92915050565b600080fd5b7f4e487b7100000000000000000000000000000000000000000000000000000000600052604160045260246000fd5b61305b82612379565b810181811067ffffffffffffffff8211171561307a57613079613023565b5b80604052505050565b600061308d6123e5565b90506130998282613052565b919050565b600067ffffffffffffffff8211156130b9576130b8613023565b5b6130c282612379565b9050602081019050919050565b60006130e26130dd8461309e565b613083565b9050828152602081018484840111156130fe576130fd61301e565b5b61310984828561234f565b509392505050565b600082601f8301126131265761312561284a565b5b81516131368482602086016130cf565b91505092915050565b600060208284031215613155576131546123ef565b5b600082015167ffffffffffffffff811115613173576131726123f4565b5b61317f84828501613111565b91505092915050565b60008190508160005260206000209050919050565b60006020601f8301049050919050565b600082821b905092915050565b6000600883026131ea7fffffffffffffffffffffffffffffffffffffffffffffffffffffffffffffffff826131ad565b6131f486836131ad565b95508019841693508086168417925050509392505050565b600061322761322261321d84612457565b612a20565b612457565b9050919050565b6000819050919050565b6132418361320c565b61325561324d8261322e565b8484546131ba565b825550505050565b600090565b61326a61325d565b613275818484613238565b505050565b5b818110156132995761328e600082613262565b60018101905061327b565b5050565b601f8211156132de576132af81613188565b6132b88461319d565b810160208510156132c7578190505b6132db6132d38561319d565b83018261327a565b50505b505050565b600082821c905092915050565b6000613301600019846008026132e3565b1980831691505092915050565b600061331a83836132f0565b9150826002028217905092915050565b61333382612333565b67ffffffffffffffff81111561334c5761334b613023565b5b6133568254612de3565b61336182828561329d565b600060209050601f8311600181146133945760008415613382578287015190505b61338c858261330e565b8655506133f4565b601f1984166133a286613188565b60005b828110156133ca578489015182556001820191506020850194506020810190506133a5565b868310156133e757848901516133e3601f8916826132f0565b8355505b6001600288020188555050505b505050505050565b7f45524332303a2064656372656173656420616c6c6f77616e63652062656c6f7760008201527f207a65726f000000000000000000000000000000000000000000000000000000602082015250565b600061345860258361233e565b9150613463826133fc565b604082019050919050565b600060208201905081810360008301526134878161344b565b9050919050565b7f76616c696461746f72206973206e6f742073657420666f72207468697320726560008201527f7175657374206964000000000000000000000000000000000000000000000000602082015250565b60006134ea60288361233e565b91506134f58261348e565b604082019050919050565b60006020820190508181036000830152613519816134dd565b9050919050565b7f7175657279206973206e6f742073657420666f7220746869732072657175657360008201527f7420696400000000000000000000000000000000000000000000000000000000602082015250565b600061357c60248361233e565b915061358782613520565b604082019050919050565b600060208201905081810360008301526135ab8161356f565b9050919050565b600082825260208201905092915050565b60006135cf83856135b2565b93507f07ffffffffffffffffffffffffffffffffffffffffffffffffffffffffffffff83111561360257613601612e88565b5b602083029250613613838584612e8d565b82840190509392505050565b61362b60408383612e8d565b5050565b600060029050919050565b600081905092915050565b6000819050919050565b61365b60408383612e8d565b5050565b600061366b838361364f565b60408301905092915050565b600082905092915050565b6000604082019050919050565b6136988161362f565b6136a2818461363a565b92506136ad82613645565b8060005b838110156136e6576136c38284613677565b6136cd878261365f565b96506136d883613682565b9250506001810190506136b1565b505050505050565b600061014082019050818103600083015261370a81888a6135c3565b9050613719602083018761361f565b613726606083018661368f565b61373360e083018561361f565b613741610120830184612503565b979650505050505050565b613755816124cd565b811461376057600080fd5b50565b6000815190506137728161374c565b92915050565b60006020828403121561378e5761378d6123ef565b5b600061379c84828501613763565b91505092915050565b7f70726f6f6620726573706f6e7365206973206e6f742076616c69640000000000600082015250565b60006137db601b8361233e565b91506137e6826137a5565b602082019050919050565b6000602082019050818103600083015261380a816137ce565b9050919050565b7f4f776e61626c653a206e6577206f776e657220697320746865207a65726f206160008201527f6464726573730000000000000000000000000000000000000000000000000000602082015250565b600061386d60268361233e565b915061387882613811565b604082019050919050565b6000602082019050818103600083015261389c81613860565b9050919050565b7f45524332303a20617070726f76652066726f6d20746865207a65726f2061646460008201527f7265737300000000000000000000000000000000000000000000000000000000602082015250565b60006138ff60248361233e565b915061390a826138a3565b604082019050919050565b6000602082019050818103600083015261392e816138f2565b9050919050565b7f45524332303a20617070726f766520746f20746865207a65726f20616464726560008201527f7373000000000000000000000000000000000000000000000000000000000000602082015250565b600061399160228361233e565b915061399c82613935565b604082019050919050565b600060208201905081810360008301526139c081613984565b9050919050565b7f45524332303a20696e73756666696369656e7420616c6c6f77616e6365000000600082015250565b60006139fd601d8361233e565b9150613a08826139c7565b602082019050919050565b60006020820190508181036000830152613a2c816139f0565b9050919050565b7f45524332303a207472616e736665722066726f6d20746865207a65726f20616460008201527f6472657373000000000000000000000000000000000000000000000000000000602082015250565b6000613a8f60258361233e565b9150613a9a82613a33565b604082019050919050565b60006020820190508181036000830152613abe81613a82565b9050919050565b7f45524332303a207472616e7366657220746f20746865207a65726f206164647260008201527f6573730000000000000000000000000000000000000000000000000000000000602082015250565b6000613b2160238361233e565b9150613b2c82613ac5565b604082019050919050565b60006020820190508181036000830152613b5081613b14565b9050919050565b7f45524332303a207472616e7366657220616d6f756e742065786365656473206260008201527f616c616e63650000000000000000000000000000000000000000000000000000602082015250565b6000613bb360268361233e565b9150613bbe82613b57565b604082019050919050565b60006020820190508181036000830152613be281613ba6565b9050919050565b7f4f776e61626c653a2063616c6c6572206973206e6f7420746865206f776e6572600082015250565b6000613c1f60208361233e565b9150613c2a82613be9565b602082019050919050565b60006020820190508181036000830152613c4e81613c12565b9050919050565b7f4e487b7100000000000000000000000000000000000000000000000000000000600052603260045260246000fd5b7f6164647265737320696e2070726f6f66206973206e6f7420612073656e64657260008201527f2061646472657373000000000000000000000000000000000000000000000000602082015250565b6000613ce060288361233e565b9150613ceb82613c84565b604082019050919050565b60006020820190508181036000830152613d0f81613cd3565b9050919050565b7f70726f6f662063616e206e6f74206265207375626d6974746564206d6f72652060008201527f7468616e206f6e63650000000000000000000000000000000000000000000000602082015250565b6000613d7260298361233e565b9150613d7d82613d16565b604082019050919050565b60006020820190508181036000830152613da181613d65565b9050919050565b7f6f6e6c79206964656e7469746965732077686f2070726f76696465642070726f60008201527f6f662061726520616c6c6f77656420746f207265636569766520746f6b656e73602082015250565b6000613e0460408361233e565b9150613e0f82613da8565b604082019050919050565b60006020820190508181036000830152613e3381613df7565b9050919050565b7f45524332303a206d696e7420746f20746865207a65726f206164647265737300600082015250565b6000613e70601f8361233e565b9150613e7b82613e3a565b602082019050919050565b60006020820190508181036000830152613e9f81613e63565b905091905056fea264697066735822122028d33e28355e0fdcb6a101bfeb0be7d45896b2b8a76fe31f9ce42ceef7093e1e64736f6c63430008110033",
  "linkReferences": {
    "contracts/lib/Poseidon.sol": {
      "PoseidonUnit6L": [
        {
          "length": 20,
          "start": 4880
        }
      ]
    },
    "contracts/lib/SpongePoseidon.sol": {
      "SpongePoseidon": [
        {
          "length": 20,
          "start": 4754
        }
      ]
    }
  },
  "deployedLinkReferences": {
    "contracts/lib/Poseidon.sol": {
      "PoseidonUnit6L": [
        {
          "length": 20,
          "start": 2567
        }
      ]
    },
    "contracts/lib/SpongePoseidon.sol": {
      "SpongePoseidon": [
        {
          "length": 20,
          "start": 2441
        }
      ]
    }
  }
}