{"contracts/lib/SpongePoseidon.sol":{"SpongePoseidon":{"abi":[{"inputs":[{"internalType":"uint256[]","name":"values","type":"uint256[]"}],"name":"hash","outputs":[{"internalType":"uint256","name":"","type":"uint256"}],"stateMutability":"view","type":"function"}],"evm":{"bytecode":{"linkReferences":{"contracts/lib/Poseidon.sol":{"PoseidonUnit6L":[{"length":20,"start":208},{"length":20,"start":613}]}},"object":"6107a6610053600b82828239805160001a607314610046577f4e487b7100000000000000000000000000000000000000000000000000000000600052600060045260246000fd5b30600052607381538281f3fe73000000000000000000000000000000000000000030146080604052600436106100355760003560e01c806340ec6e491461003a575b600080fd5b610054600480360381019061004f91906103f8565b61006a565b604051610061919061045e565b60405180910390f35b600080600090506000848490509050600073__$149ddb96bf5d692e763ea65f305faba249$__63f5b4a7886040518060c001604052806100ad8a8a60008961033f565b81526020016100bf8a8a60018961033f565b81526020016100d18a8a60028961033f565b81526020016100e38a8a60038961033f565b81526020016100f58a8a60048961033f565b81526020016101078a8a60058961033f565b8152506040518263ffffffff1660e01b81526004016101269190610524565b602060405180830381865af4158015610143573d6000803e3d6000fd5b505050506040513d601f19601f82011682018060405250810190610167919061056b565b9050600060068361017891906105d7565b9050600563ffffffff168163ffffffff1611156101dc57600060058261019e919061063e565b90506000808263ffffffff16146101bf578160056101bc91906105d7565b90505b600581846101cd919061066f565b6101d791906106a7565b955050505b60005b8463ffffffff168163ffffffff161015610331576000600660058361020491906106d8565b61020e919061066f565b905073__$149ddb96bf5d692e763ea65f305faba249$__63f5b4a7886040518060c001604052808781526020016102478d8d878c61033f565b81526020016102648d8d60018861025e919061066f565b8c61033f565b81526020016102818d8d60028861027b919061066f565b8c61033f565b815260200161029e8d8d600388610298919061066f565b8c61033f565b81526020016102bb8d8d6004886102b5919061066f565b8c61033f565b8152506040518263ffffffff1660e01b81526004016102da9190610524565b602060405180830381865af41580156102f7573d6000803e3d6000fd5b505050506040513d601f19601f8201168201806040525081019061031b919061056b565b935050808061032990610715565b9150506101df565b508194505050505092915050565b60008163ffffffff168363ffffffff16101561037c5784848463ffffffff1681811061036e5761036d610741565b5b905060200201359050610381565b600090505b949350505050565b600080fd5b600080fd5b600080fd5b600080fd5b600080fd5b60008083601f8401126103b8576103b7610393565b5b8235905067ffffffffffffffff8111156103d5576103d4610398565b5b6020830191508360208202830111156103f1576103f061039d565b5b9250929050565b6000806020838503121561040f5761040e610389565b5b600083013567ffffffffffffffff81111561042d5761042c61038e565b5b610439858286016103a2565b92509250509250929050565b6000819050919050565b61045881610445565b82525050565b6000602082019050610473600083018461044f565b92915050565b600060069050919050565b600081905092915050565b6000819050919050565b6104a281610445565b82525050565b60006104b48383610499565b60208301905092915050565b6000602082019050919050565b6104d681610479565b6104e08184610484565b92506104eb8261048f565b8060005b8381101561051c57815161050387826104a8565b965061050e836104c0565b9250506001810190506104ef565b505050505050565b600060c08201905061053960008301846104cd565b92915050565b61054881610445565b811461055357600080fd5b50565b6000815190506105658161053f565b92915050565b60006020828403121561058157610580610389565b5b600061058f84828501610556565b91505092915050565b600063ffffffff82169050919050565b7f4e487b7100000000000000000000000000000000000000000000000000000000600052601160045260246000fd5b60006105e282610598565b91506105ed83610598565b9250828203905063ffffffff811115610609576106086105a8565b5b92915050565b7f4e487b7100000000000000000000000000000000000000000000000000000000600052601260045260246000fd5b600061064982610598565b915061065483610598565b9250826106645761066361060f565b5b828206905092915050565b600061067a82610598565b915061068583610598565b9250828201905063ffffffff8111156106a1576106a06105a8565b5b92915050565b60006106b282610598565b91506106bd83610598565b9250826106cd576106cc61060f565b5b828204905092915050565b60006106e382610598565b91506106ee83610598565b92508282026106fc81610598565b915080821461070e5761070d6105a8565b5b5092915050565b600061072082610598565b915063ffffffff8203610736576107356105a8565b5b600182019050919050565b7f4e487b7100000000000000000000000000000000000000000000000000000000600052603260045260246000fdfea2646970667358221220babef9b33b4d064b2538beca216f4394f785e457ef068b9cad958f7376891f0664736f6c63430008110033","opcodes":"PUSH2 0x7A6 PUSH2 0x53 PUSH1 0xB DUP3 DUP3 DUP3 CODECOPY DUP1 MLOAD PUSH1 0x0 BYTE PUSH1 0x73 EQ PUSH2 0x46 JUMPI PUSH32 0x4E487B7100000000000000000000000000000000000000000000000000000000 PUSH1 0x0 MSTORE PUSH1 0x0 PUSH1 0x4 MSTORE PUSH1 0x24 PUSH1 0x0 REVERT JUMPDEST ADDRESS PUSH1 0x0 MSTORE PUSH1 0x73 DUP2 MSTORE8 DUP3 DUP2 RETURN INVALID PUSH20 0x0 ADDRESS EQ PUSH1 0x80 PUSH1 0x40 MSTORE PUSH1 0x4 CALLDATASIZE LT PUSH2 0x35 JUMPI PUSH1 0x0 CALLDATALOAD PUSH1 0xE0 SHR DUP1 PUSH4 0x40EC6E49 EQ PUSH2 0x3A JUMPI JUMPDEST PUSH1 0x0 DUP1 REVERT JUMPDEST PUSH2 0x54 PUSH1 0x4 DUP1 CALLDATASIZE SUB DUP2 ADD SWAP1 PUSH2 0x4F SWAP2 SWAP1 PUSH2 0x3F8 JUMP JUMPDEST PUSH2 0x6A JUMP JUMPDEST PUSH1 0x40 MLOAD PUSH2 0x61 SWAP2 SWAP1 PUSH2 0x45E JUMP JUMPDEST PUSH1 0x40 MLOAD DUP1 SWAP2 SUB SWAP1 RETURN JUMPDEST PUSH1 0x0 DUP1 PUSH1 0x0 SWAP1 POP PUSH1 0x0 DUP5 DUP5 SWAP1 POP SWAP1 POP PUSH1 0x0 PUSH20 0x0 PUSH4 0xF5B4A788 PUSH1 0x40 MLOAD DUP1 PUSH1 0xC0 ADD PUSH1 0x40 MSTORE DUP1 PUSH2 0xAD DUP11 DUP11 PUSH1 0x0 DUP10 PUSH2 0x33F JUMP JUMPDEST DUP2 MSTORE PUSH1 0x20 ADD PUSH2 0xBF DUP11 DUP11 PUSH1 0x1 DUP10 PUSH2 0x33F JUMP JUMPDEST DUP2 MSTORE PUSH1 0x20 ADD PUSH2 0xD1 DUP11 DUP11 PUSH1 0x2 DUP10 PUSH2 0x33F JUMP JUMPDEST DUP2 MSTORE PUSH1 0x20 ADD PUSH2 0xE3 DUP11 DUP11 PUSH1 0x3 DUP10 PUSH2 0x33F JUMP JUMPDEST DUP2 MSTORE PUSH1 0x20 ADD PUSH2 0xF5 DUP11 DUP11 PUSH1 0x4 DUP10 PUSH2 0x33F JUMP JUMPDEST DUP2 MSTORE PUSH1 0x20 ADD PUSH2 0x107 DUP11 DUP11 PUSH1 0x5 DUP10 PUSH2 0x33F JUMP JUMPDEST DUP2 MSTORE POP PUSH1 0x40 MLOAD DUP3 PUSH4 0xFFFFFFFF AND PUSH1 0xE0 SHL DUP2 MSTORE PUSH1 0x4 ADD PUSH2 0x126 SWAP2 SWAP1 PUSH2 0x524 JUMP JUMPDEST PUSH1 0x20 PUSH1 0x40 MLOAD DUP1 DUP4 SUB DUP2 DUP7 GAS DELEGATECALL ISZERO DUP1 ISZERO PUSH2 0x143 JUMPI RETURNDATASIZE PUSH1 0x0 DUP1 RETURNDATACOPY RETURNDATASIZE PUSH1 0x0 REVERT JUMPDEST POP POP POP POP PUSH1 0x40 MLOAD RETURNDATASIZE PUSH1 0x1F NOT PUSH1 0x1F DUP3 ADD AND DUP3 ADD DUP1 PUSH1 0x40 MSTORE POP DUP2 ADD SWAP1 PUSH2 0x167 SWAP2 SWAP1 PUSH2 0x56B JUMP JUMPDEST SWAP1 POP PUSH1 0x0 PUSH1 0x6 DUP4 PUSH2 0x178 SWAP2 SWAP1 PUSH2 0x5D7 JUMP JUMPDEST SWAP1 POP PUSH1 0x5 PUSH4 0xFFFFFFFF AND DUP2 PUSH4 0xFFFFFFFF AND GT ISZERO PUSH2 0x1DC JUMPI PUSH1 0x0 PUSH1 0x5 DUP3 PUSH2 0x19E SWAP2 SWAP1 PUSH2 0x63E JUMP JUMPDEST SWAP1 POP PUSH1 0x0 DUP1 DUP3 PUSH4 0xFFFFFFFF AND EQ PUSH2 0x1BF JUMPI DUP2 PUSH1 0x5 PUSH2 0x1BC SWAP2 SWAP1 PUSH2 0x5D7 JUMP JUMPDEST SWAP1 POP JUMPDEST PUSH1 0x5 DUP2 DUP5 PUSH2 0x1CD SWAP2 SWAP1 PUSH2 0x66F JUMP JUMPDEST PUSH2 0x1D7 SWAP2 SWAP1 PUSH2 0x6A7 JUMP JUMPDEST SWAP6 POP POP POP JUMPDEST PUSH1 0x0 JUMPDEST DUP5 PUSH4 0xFFFFFFFF AND DUP2 PUSH4 0xFFFFFFFF AND LT ISZERO PUSH2 0x331 JUMPI PUSH1 0x0 PUSH1 0x6 PUSH1 0x5 DUP4 PUSH2 0x204 SWAP2 SWAP1 PUSH2 0x6D8 JUMP JUMPDEST PUSH2 0x20E SWAP2 SWAP1 PUSH2 0x66F JUMP JUMPDEST SWAP1 POP PUSH20 0x0 PUSH4 0xF5B4A788 PUSH1 0x40 MLOAD DUP1 PUSH1 0xC0 ADD PUSH1 0x40 MSTORE DUP1 DUP8 DUP2 MSTORE PUSH1 0x20 ADD PUSH2 0x247 DUP14 DUP14 DUP8 DUP13 PUSH2 0x33F JUMP JUMPDEST DUP2 MSTORE PUSH1 0x20 ADD PUSH2 0x264 DUP14 DUP14 PUSH1 0x1 DUP9 PUSH2 0x25E SWAP2 SWAP1 PUSH2 0x66F JUMP JUMPDEST DUP13 PUSH2 0x33F JUMP JUMPDEST DUP2 MSTORE PUSH1 0x20 ADD PUSH2 0x281 DUP14 DUP14 PUSH1 0x2 DUP9 PUSH2 0x27B SWAP2 SWAP1 PUSH2 0x66F JUMP JUMPDEST DUP13 PUSH2 0x33F JUMP JUMPDEST DUP2 MSTORE PUSH1 0x20 ADD PUSH2 0x29E DUP14 DUP14 PUSH1 0x3 DUP9 PUSH2 0x298 SWAP2 SWAP1 PUSH2 0x66F JUMP JUMPDEST DUP13 PUSH2 0x33F JUMP JUMPDEST DUP2 MSTORE PUSH1 0x20 ADD PUSH2 0x2BB DUP14 DUP14 PUSH1 0x4 DUP9 PUSH2 0x2B5 SWAP2 SWAP1 PUSH2 0x66F JUMP JUMPDEST DUP13 PUSH2 0x33F JUMP JUMPDEST DUP2 MSTORE POP PUSH1 0x40 MLOAD DUP3 PUSH4 0xFFFFFFFF AND PUSH1 0xE0 SHL DUP2 MSTORE PUSH1 0x4 ADD PUSH2 0x2DA SWAP2 SWAP1 PUSH2 0x524 JUMP JUMPDEST PUSH1 0x20 PUSH1 0x40 MLOAD DUP1 DUP4 SUB DUP2 DUP7 GAS DELEGATECALL ISZERO DUP1 ISZERO PUSH2 0x2F7 JUMPI RETURNDATASIZE PUSH1 0x0 DUP1 RETURNDATACOPY RETURNDATASIZE PUSH1 0x0 REVERT JUMPDEST POP POP POP POP PUSH1 0x40 MLOAD RETURNDATASIZE PUSH1 0x1F NOT PUSH1 0x1F DUP3 ADD AND DUP3 ADD DUP1 PUSH1 0x40 MSTORE POP DUP2 ADD SWAP1 PUSH2 0x31B SWAP2 SWAP1 PUSH2 0x56B JUMP JUMPDEST SWAP4 POP POP DUP1 DUP1 PUSH2 0x329 SWAP1 PUSH2 0x715 JUMP JUMPDEST SWAP2 POP POP PUSH2 0x1DF JUMP JUMPDEST POP DUP2 SWAP5 POP POP POP POP POP SWAP3 SWAP2 POP POP JUMP JUMPDEST PUSH1 0x0 DUP2 PUSH4 0xFFFFFFFF AND DUP4 PUSH4 0xFFFFFFFF AND LT ISZERO PUSH2 0x37C JUMPI DUP5 DUP5 DUP5 PUSH4 0xFFFFFFFF AND DUP2 DUP2 LT PUSH2 0x36E JUMPI PUSH2 0x36D PUSH2 0x741 JUMP JUMPDEST JUMPDEST SWAP1 POP PUSH1 0x20 MUL ADD CALLDATALOAD SWAP1 POP PUSH2 0x381 JUMP JUMPDEST PUSH1 0x0 SWAP1 POP JUMPDEST SWAP5 SWAP4 POP POP POP POP JUMP JUMPDEST PUSH1 0x0 DUP1 REVERT JUMPDEST PUSH1 0x0 DUP1 REVERT JUMPDEST PUSH1 0x0 DUP1 REVERT JUMPDEST PUSH1 0x0 DUP1 REVERT JUMPDEST PUSH1 0x0 DUP1 REVERT JUMPDEST PUSH1 0x0 DUP1 DUP4 PUSH1 0x1F DUP5 ADD SLT PUSH2 0x3B8 JUMPI PUSH2 0x3B7 PUSH2 0x393 JUMP JUMPDEST JUMPDEST DUP3 CALLDATALOAD SWAP1 POP PUSH8 0xFFFFFFFFFFFFFFFF DUP2 GT ISZERO PUSH2 0x3D5 JUMPI PUSH2 0x3D4 PUSH2 0x398 JUMP JUMPDEST JUMPDEST PUSH1 0x20 DUP4 ADD SWAP2 POP DUP4 PUSH1 0x20 DUP3 MUL DUP4 ADD GT ISZERO PUSH2 0x3F1 JUMPI PUSH2 0x3F0 PUSH2 0x39D JUMP JUMPDEST JUMPDEST SWAP3 POP SWAP3 SWAP1 POP JUMP JUMPDEST PUSH1 0x0 DUP1 PUSH1 0x20 DUP4 DUP6 SUB SLT ISZERO PUSH2 0x40F JUMPI PUSH2 0x40E PUSH2 0x389 JUMP JUMPDEST JUMPDEST PUSH1 0x0 DUP4 ADD CALLDATALOAD PUSH8 0xFFFFFFFFFFFFFFFF DUP2 GT ISZERO PUSH2 0x42D JUMPI PUSH2 0x42C PUSH2 0x38E JUMP JUMPDEST JUMPDEST PUSH2 0x439 DUP6 DUP3 DUP7 ADD PUSH2 0x3A2 JUMP JUMPDEST SWAP3 POP SWAP3 POP POP SWAP3 POP SWAP3 SWAP1 POP JUMP JUMPDEST PUSH1 0x0 DUP2 SWAP1 POP SWAP2 SWAP1 POP JUMP JUMPDEST PUSH2 0x458 DUP2 PUSH2 0x445 JUMP JUMPDEST DUP3 MSTORE POP POP JUMP JUMPDEST PUSH1 0x0 PUSH1 0x20 DUP3 ADD SWAP1 POP PUSH2 0x473 PUSH1 0x0 DUP4 ADD DUP5 PUSH2 0x44F JUMP JUMPDEST SWAP3 SWAP2 POP POP JUMP JUMPDEST PUSH1 0x0 PUSH1 0x6 SWAP1 POP SWAP2 SWAP1 POP JUMP JUMPDEST PUSH1 0x0 DUP2 SWAP1 POP SWAP3 SWAP2 POP POP JUMP JUMPDEST PUSH1 0x0 DUP2 SWAP1 POP SWAP2 SWAP1 POP JUMP JUMPDEST PUSH2 0x4A2 DUP2 PUSH2 0x445 JUMP JUMPDEST DUP3 MSTORE POP POP JUMP JUMPDEST PUSH1 0x0 PUSH2 0x4B4 DUP4 DUP4 PUSH2 0x499 JUMP JUMPDEST PUSH1 0x20 DUP4 ADD SWAP1 POP SWAP3 SWAP2 POP POP JUMP JUMPDEST PUSH1 0x0 PUSH1 0x20 DUP3 ADD SWAP1 POP SWAP2 SWAP1 POP JUMP JUMPDEST PUSH2 0x4D6 DUP2 PUSH2 0x479 JUMP JUMPDEST PUSH2 0x4E0 DUP2 DUP5 PUSH2 0x484 JUMP JUMPDEST SWAP3 POP PUSH2 0x4EB DUP3 PUSH2 0x48F JUMP JUMPDEST DUP1 PUSH1 0x0 JUMPDEST DUP4 DUP2 LT ISZERO PUSH2 0x51C JUMPI DUP2 MLOAD PUSH2 0x503 DUP8 DUP3 PUSH2 0x4A8 JUMP JUMPDEST SWAP7 POP PUSH2 0x50E DUP4 PUSH2 0x4C0 JUMP JUMPDEST SWAP3 POP POP PUSH1 0x1 DUP2 ADD SWAP1 POP PUSH2 0x4EF JUMP JUMPDEST POP POP POP POP POP POP JUMP JUMPDEST PUSH1 0x0 PUSH1 0xC0 DUP3 ADD SWAP1 POP PUSH2 0x539 PUSH1 0x0 DUP4 ADD DUP5 PUSH2 0x4CD JUMP JUMPDEST SWAP3 SWAP2 POP POP JUMP JUMPDEST PUSH2 0x548 DUP2 PUSH2 0x445 JUMP JUMPDEST DUP2 EQ PUSH2 0x553 JUMPI PUSH1 0x0 DUP1 REVERT JUMPDEST POP JUMP JUMPDEST PUSH1 0x0 DUP2 MLOAD SWAP1 POP PUSH2 0x565 DUP2 PUSH2 0x53F JUMP JUMPDEST SWAP3 SWAP2 POP POP JUMP JUMPDEST PUSH1 0x0 PUSH1 0x20 DUP3 DUP5 SUB SLT ISZERO PUSH2 0x581 JUMPI PUSH2 0x580 PUSH2 0x389 JUMP JUMPDEST JUMPDEST PUSH1 0x0 PUSH2 0x58F DUP5 DUP3 DUP6 ADD PUSH2 0x556 JUMP JUMPDEST SWAP2 POP POP SWAP3 SWAP2 POP POP JUMP JUMPDEST PUSH1 0x0 PUSH4 0xFFFFFFFF DUP3 AND SWAP1 POP SWAP2 SWAP1 POP JUMP JUMPDEST PUSH32 0x4E487B7100000000000000000000000000000000000000000000000000000000 PUSH1 0x0 MSTORE PUSH1 0x11 PUSH1 0x4 MSTORE PUSH1 0x24 PUSH1 0x0 REVERT JUMPDEST PUSH1 0x0 PUSH2 0x5E2 DUP3 PUSH2 0x598 JUMP JUMPDEST SWAP2 POP PUSH2 0x5ED DUP4 PUSH2 0x598 JUMP JUMPDEST SWAP3 POP DUP3 DUP3 SUB SWAP1 POP PUSH4 0xFFFFFFFF DUP2 GT ISZERO PUSH2 0x609 JUMPI PUSH2 0x608 PUSH2 0x5A8 JUMP JUMPDEST JUMPDEST SWAP3 SWAP2 POP POP JUMP JUMPDEST PUSH32 0x4E487B7100000000000000000000000000000000000000000000000000000000 PUSH1 0x0 MSTORE PUSH1 0x12 PUSH1 0x4 MSTORE PUSH1 0x24 PUSH1 0x0 REVERT JUMPDEST PUSH1 0x0 PUSH2 0x649 DUP3 PUSH2 0x598 JUMP JUMPDEST SWAP2 POP PUSH2 0x654 DUP4 PUSH2 0x598 JUMP JUMPDEST SWAP3 POP DUP3 PUSH2 0x664 JUMPI PUSH2 0x663 PUSH2 0x60F JUMP JUMPDEST JUMPDEST DUP3 DUP3 MOD SWAP1 POP SWAP3 SWAP2 POP POP JUMP JUMPDEST PUSH1 0x0 PUSH2 0x67A DUP3 PUSH2 0x598 JUMP JUMPDEST SWAP2 POP PUSH2 0x685 DUP4 PUSH2 0x598 JUMP JUMPDEST SWAP3 POP DUP3 DUP3 ADD SWAP1 POP PUSH4 0xFFFFFFFF DUP2 GT ISZERO PUSH2 0x6A1 JUMPI PUSH2 0x6A0 PUSH2 0x5A8 JUMP JUMPDEST JUMPDEST SWAP3 SWAP2 POP POP JUMP JUMPDEST PUSH1 0x0 PUSH2 0x6B2 DUP3 PUSH2 0x598 JUMP JUMPDEST SWAP2 POP PUSH2 0x6BD DUP4 PUSH2 0x598 JUMP JUMPDEST SWAP3 POP DUP3 PUSH2 0x6CD JUMPI PUSH2 0x6CC PUSH2 0x60F JUMP JUMPDEST JUMPDEST DUP3 DUP3 DIV SWAP1 POP SWAP3 SWAP2 POP POP JUMP JUMPDEST PUSH1 0x0 PUSH2 0x6E3 DUP3 PUSH2 0x598 JUMP JUMPDEST SWAP2 POP PUSH2 0x6EE DUP4 PUSH2 0x598 JUMP JUMPDEST SWAP3 POP DUP3 DUP3 MUL PUSH2 0x6FC DUP2 PUSH2 0x598 JUMP JUMPDEST SWAP2 POP DUP1 DUP3 EQ PUSH2 0x70E JUMPI PUSH2 0x70D PUSH2 0x5A8 JUMP JUMPDEST JUMPDEST POP SWAP3 SWAP2 POP POP JUMP JUMPDEST PUSH1 0x0 PUSH2 0x720 DUP3 PUSH2 0x598 JUMP JUMPDEST SWAP2 POP PUSH4 0xFFFFFFFF DUP3 SUB PUSH2 0x736 JUMPI PUSH2 0x735 PUSH2 0x5A8 JUMP JUMPDEST JUMPDEST PUSH1 0x1 DUP3 ADD SWAP1 POP SWAP2 SWAP1 POP JUMP JUMPDEST PUSH32 0x4E487B7100000000000000000000000000000000000000000000000000000000 PUSH1 0x0 MSTORE PUSH1 0x32 PUSH1 0x4 MSTORE PUSH1 0x24 PUSH1 0x0 REVERT INVALID LOG2 PUSH5 0x6970667358 0x22 SLT KECCAK256 0xBA 0xBE 0xF9 0xB3 EXTCODESIZE 0x4D MOD 0x4B 0x25 CODESIZE 0xBE 0xCA 0x21 PUSH16 0x4394F785E457EF068B9CAD958F737689 0x1F MOD PUSH5 0x736F6C6343 STOP ADDMOD GT STOP CALLER "},"methodIdentifiers":{"hash(uint256[])":"40ec6e49"}},"storageLayout":{"storage":[],"types":null}}}}