{"contracts/validators/CredentialAtomicQuerySigValidator.sol":{"CredentialAtomicQuerySigValidator":{"abi":[{"anonymous":false,"inputs":[{"indexed":false,"internalType":"uint8","name":"version","type":"uint8"}],"name":"Initialized","type":"event"},{"anonymous":false,"inputs":[{"indexed":true,"internalType":"address","name":"previousOwner","type":"address"},{"indexed":true,"internalType":"address","name":"newOwner","type":"address"}],"name":"OwnershipTransferred","type":"event"},{"inputs":[],"name":"getChallengeInputIndex","outputs":[{"internalType":"uint256","name":"index","type":"uint256"}],"stateMutability":"pure","type":"function"},{"inputs":[],"name":"getCircuitId","outputs":[{"internalType":"string","name":"id","type":"string"}],"stateMutability":"pure","type":"function"},{"inputs":[{"internalType":"address","name":"_verifierContractAddr","type":"address"},{"internalType":"address","name":"_stateContractAddr","type":"address"}],"name":"initialize","outputs":[],"stateMutability":"nonpayable","type":"function"},{"inputs":[],"name":"owner","outputs":[{"internalType":"address","name":"","type":"address"}],"stateMutability":"view","type":"function"},{"inputs":[],"name":"renounceOwnership","outputs":[],"stateMutability":"nonpayable","type":"function"},{"inputs":[],"name":"revocationStateExpirationTime","outputs":[{"internalType":"uint256","name":"","type":"uint256"}],"stateMutability":"view","type":"function"},{"inputs":[{"internalType":"uint256","name":"expirationTime","type":"uint256"}],"name":"setRevocationStateExpirationTime","outputs":[],"stateMutability":"nonpayable","type":"function"},{"inputs":[],"name":"state","outputs":[{"internalType":"contract IState","name":"","type":"address"}],"stateMutability":"view","type":"function"},{"inputs":[{"internalType":"address","name":"newOwner","type":"address"}],"name":"transferOwnership","outputs":[],"stateMutability":"nonpayable","type":"function"},{"inputs":[],"name":"verifier","outputs":[{"internalType":"contract IVerifier","name":"","type":"address"}],"stateMutability":"view","type":"function"},{"inputs":[{"internalType":"uint256[]","name":"inputs","type":"uint256[]"},{"internalType":"uint256[2]","name":"a","type":"uint256[2]"},{"internalType":"uint256[2][2]","name":"b","type":"uint256[2][2]"},{"internalType":"uint256[2]","name":"c","type":"uint256[2]"},{"internalType":"uint256","name":"queryHash","type":"uint256"}],"name":"verify","outputs":[{"internalType":"bool","name":"r","type":"bool"}],"stateMutability":"view","type":"function"}],"evm":{"bytecode":{"linkReferences":{},"object":"608060405234801561001057600080fd5b50612657806100206000396000f3fe608060405234801561001057600080fd5b50600436106100a95760003560e01c8063715018a611610071578063715018a6146101545780638da5cb5b1461015e5780639f442afa1461017c578063c19d93fb1461019a578063e79ce794146101b8578063f2fde38b146101d4576100a9565b806323962482146100ae5780632b7ac3f3146100cc578063434661ef146100ea578063485cc9551461011a57806359a2aeaa14610136575b600080fd5b6100b66101f0565b6040516100c391906112dc565b60405180910390f35b6100d46101f6565b6040516100e19190611376565b60405180910390f35b61010460048036038101906100ff919061147a565b61021c565b6040516101119190611531565b60405180910390f35b610134600480360381019061012f919061158a565b610869565b005b61013e610a34565b60405161014b919061165a565b60405180910390f35b61015c610a54565b005b610166610a68565b604051610173919061168b565b60405180910390f35b610184610a92565b60405161019191906112dc565b60405180910390f35b6101a2610a9b565b6040516101af91906116c7565b60405180910390f35b6101d260048036038101906101cd91906116e2565b610ac1565b005b6101ee60048036038101906101e9919061170f565b610ad3565b005b60675481565b606560009054906101000a900473ffffffffffffffffffffffffffffffffffffffff1681565b6000606560009054906101000a900473ffffffffffffffffffffffffffffffffffffffff1673ffffffffffffffffffffffffffffffffffffffff1663c32e370e8686868b8b6040518663ffffffff1660e01b8152600401610281959493929190611886565b602060405180830381865afa15801561029e573d6000803e3d6000fd5b505050506040513d601f19601f820116820180604052508101906102c29190611902565b610301576040517f08c379a00000000000000000000000000000000000000000000000000000000081526004016102f8906119a1565b60405180910390fd5b8187876002818110610316576103156119c1565b5b905060200201351461035d576040517f08c379a000000000000000000000000000000000000000000000000000000000815260040161035490611a62565b60405180910390fd5b600087876003818110610373576103726119c1565b5b905060200201359050600088886006818110610392576103916119c1565b5b9050602002013590506000898960078181106103b1576103b06119c1565b5b90506020020135905060008a8a60098181106103d0576103cf6119c1565b5b9050602002013590506000606660009054906101000a900473ffffffffffffffffffffffffffffffffffffffff1673ffffffffffffffffffffffffffffffffffffffff16637c1a66de856040518263ffffffff1660e01b815260040161043691906112dc565b60c060405180830381865afa158015610453573d6000803e3d6000fd5b505050506040513d601f19601f820116820180604052508101906104779190611bb7565b9050838160000151146104bf576040517f08c379a00000000000000000000000000000000000000000000000000000000081526004016104b690611c56565b60405180910390fd5b60006104cb8487610b56565b9050806105ba576000606660009054906101000a900473ffffffffffffffffffffffffffffffffffffffff1673ffffffffffffffffffffffffffffffffffffffff16633622b0bc886040518263ffffffff1660e01b815260040161052f91906112dc565b60e060405180830381865afa15801561054c573d6000803e3d6000fd5b505050506040513d601f19601f820116820180604052508101906105709190611d2a565b9050806000015185146105b8576040517f08c379a00000000000000000000000000000000000000000000000000000000081526004016105af90611dc9565b60405180910390fd5b505b6000606660009054906101000a900473ffffffffffffffffffffffffffffffffffffffff1673ffffffffffffffffffffffffffffffffffffffff1663b4bdea55866040518263ffffffff1660e01b815260040161061791906112dc565b60e060405180830381865afa158015610634573d6000803e3d6000fd5b505050506040513d601f19601f820116820180604052508101906106589190611d2a565b905060008160200151036106b4576106708585610b56565b6106af576040517f08c379a00000000000000000000000000000000000000000000000000000000081526004016106a690611e5b565b60405180910390fd5b610854565b83816020015114610853576000606660009054906101000a900473ffffffffffffffffffffffffffffffffffffffff1673ffffffffffffffffffffffffffffffffffffffff16633622b0bc866040518263ffffffff1660e01b815260040161071c91906112dc565b60e060405180830381865afa158015610739573d6000803e3d6000fd5b505050506040513d601f19601f8201168201806040525081019061075d9190611d2a565b9050600081600001511480610776575085816000015114155b156107b6576040517f08c379a00000000000000000000000000000000000000000000000000000000081526004016107ad90611eed565b60405180910390fd5b60008160800151036107fd576040517f08c379a00000000000000000000000000000000000000000000000000000000081526004016107f490611f7f565b60405180910390fd5b6067548160800151426108109190611fce565b1115610851576040517f08c379a000000000000000000000000000000000000000000000000000000000815260040161084890612074565b60405180910390fd5b505b5b60019750505050505050509695505050505050565b60008060019054906101000a900460ff1615905080801561089a5750600160008054906101000a900460ff1660ff16105b806108c757506108a930610ca1565b1580156108c65750600160008054906101000a900460ff1660ff16145b5b610906576040517f08c379a00000000000000000000000000000000000000000000000000000000081526004016108fd90612106565b60405180910390fd5b60016000806101000a81548160ff021916908360ff1602179055508015610943576001600060016101000a81548160ff0219169083151502179055505b610e1060678190555082606560006101000a81548173ffffffffffffffffffffffffffffffffffffffff021916908373ffffffffffffffffffffffffffffffffffffffff16021790555081606660006101000a81548173ffffffffffffffffffffffffffffffffffffffff021916908373ffffffffffffffffffffffffffffffffffffffff1602179055506109d6610cc4565b8015610a2f5760008060016101000a81548160ff0219169083151502179055507f7f26b83ff96e1f2b6a682f133852f6798a09c465da95921460cefb38474024986001604051610a26919061216e565b60405180910390a15b505050565b606060405180606001604052806021815260200161260160219139905090565b610a5c610d1d565b610a666000610d9b565b565b6000603360009054906101000a900473ffffffffffffffffffffffffffffffffffffffff16905090565b60006005905090565b606660009054906101000a900473ffffffffffffffffffffffffffffffffffffffff1681565b610ac9610d1d565b8060678190555050565b610adb610d1d565b600073ffffffffffffffffffffffffffffffffffffffff168173ffffffffffffffffffffffffffffffffffffffff1603610b4a576040517f08c379a0000000000000000000000000000000000000000000000000000000008152600401610b41906121fb565b60405180910390fd5b610b5381610d9b565b50565b600080610b6283610e61565b90506000610b6f82610fad565b90506000610b8c82601b8451610b859190611fce565b601b61100a565b90506000604051806040016040528060028152602001600081525090506000610bb58284611128565b9050601d815114610bfb576040517f08c379a0000000000000000000000000000000000000000000000000000000008152600401610bf29061228d565b60405180910390fd5b6000610c06826111b2565b9050600081604051602001610c1b91906122f1565b60405160208183030381529060405290506000610c388483611128565b9050601f815114610c7e576040517f08c379a0000000000000000000000000000000000000000000000000000000008152600401610c7590612358565b60405180910390fd5b610c8f610c8a8261124c565b610e61565b8b149850505050505050505092915050565b6000808273ffffffffffffffffffffffffffffffffffffffff163b119050919050565b600060019054906101000a900460ff16610d13576040517f08c379a0000000000000000000000000000000000000000000000000000000008152600401610d0a906123ea565b60405180910390fd5b610d1b61125a565b565b610d256112bb565b73ffffffffffffffffffffffffffffffffffffffff16610d43610a68565b73ffffffffffffffffffffffffffffffffffffffff1614610d99576040517f08c379a0000000000000000000000000000000000000000000000000000000008152600401610d9090612456565b60405180910390fd5b565b6000603360009054906101000a900473ffffffffffffffffffffffffffffffffffffffff16905081603360006101000a81548173ffffffffffffffffffffffffffffffffffffffff021916908373ffffffffffffffffffffffffffffffffffffffff1602179055508173ffffffffffffffffffffffffffffffffffffffff168173ffffffffffffffffffffffffffffffffffffffff167f8be0079c531659141344cd1fd0a4f28419497f9722a3daafe3b4186f6b6457e060405160405180910390a35050565b600081905060087eff00ff00ff00ff00ff00ff00ff00ff00ff00ff00ff00ff00ff00ff00ff00ff8216901b60087fff00ff00ff00ff00ff00ff00ff00ff00ff00ff00ff00ff00ff00ff00ff00ff008316901c17905060107dffff0000ffff0000ffff0000ffff0000ffff0000ffff0000ffff0000ffff8216901b60107fffff0000ffff0000ffff0000ffff0000ffff0000ffff0000ffff0000ffff00008316901c17905060207bffffffff00000000ffffffff00000000ffffffff00000000ffffffff8216901b60207fffffffff00000000ffffffff00000000ffffffff00000000ffffffff000000008316901c179050604077ffffffffffffffff0000000000000000ffffffffffffffff8216901b60407fffffffffffffffff0000000000000000ffffffffffffffff00000000000000008316901c179050608081901b608082901c179050919050565b6060602067ffffffffffffffff811115610fca57610fc9611a87565b5b6040519080825280601f01601f191660200182016040528015610ffc5781602001600182028036833780820191505090505b509050816020820152919050565b606081601f8361101a9190612476565b101561105b576040517f08c379a0000000000000000000000000000000000000000000000000000000008152600401611052906124f6565b60405180910390fd5b81836110679190612476565b845110156110aa576040517f08c379a00000000000000000000000000000000000000000000000000000000081526004016110a190612562565b60405180910390fd5b60608215600081146110cb576040519150600082526020820160405261111c565b6040519150601f8416801560200281840101858101878315602002848b0101015b8183101561110957805183526020830192506020810190506110ec565b50868552601f19601f8301166040525050505b50809150509392505050565b6060806040519050835180825260208201818101602087015b8183101561115e5780518352602083019250602081019050611141565b50855192508351830184528091508282019050602086015b818310156111935780518352602083019250602081019050611176565b50601f19601f8851850115830101166040525050508091505092915050565b6000601d8251146111f8576040517f08c379a00000000000000000000000000000000000000000000000000000000081526004016111ef9061228d565b60405180910390fd5b60005b825181101561124657828181518110611217576112166119c1565b5b602001015160f81c60f81b60f81c60ff16826112339190612582565b91508061123f906125b8565b90506111fb565b50919050565b600060208201519050919050565b600060019054906101000a900460ff166112a9576040517f08c379a00000000000000000000000000000000000000000000000000000000081526004016112a0906123ea565b60405180910390fd5b6112b96112b46112bb565b610d9b565b565b600033905090565b6000819050919050565b6112d6816112c3565b82525050565b60006020820190506112f160008301846112cd565b92915050565b600073ffffffffffffffffffffffffffffffffffffffff82169050919050565b6000819050919050565b600061133c611337611332846112f7565b611317565b6112f7565b9050919050565b600061134e82611321565b9050919050565b600061136082611343565b9050919050565b61137081611355565b82525050565b600060208201905061138b6000830184611367565b92915050565b6000604051905090565b600080fd5b600080fd5b600080fd5b600080fd5b600080fd5b60008083601f8401126113ca576113c96113a5565b5b8235905067ffffffffffffffff8111156113e7576113e66113aa565b5b602083019150836020820283011115611403576114026113af565b5b9250929050565b600081905082602060020282011115611426576114256113af565b5b92915050565b600081905082604060020282011115611448576114476113af565b5b92915050565b611457816112c3565b811461146257600080fd5b50565b6000813590506114748161144e565b92915050565b60008060008060008061014087890312156114985761149761139b565b5b600087013567ffffffffffffffff8111156114b6576114b56113a0565b5b6114c289828a016113b4565b965096505060206114d589828a0161140a565b94505060606114e689828a0161142c565b93505060e06114f789828a0161140a565b92505061012061150989828a01611465565b9150509295509295509295565b60008115159050919050565b61152b81611516565b82525050565b60006020820190506115466000830184611522565b92915050565b6000611557826112f7565b9050919050565b6115678161154c565b811461157257600080fd5b50565b6000813590506115848161155e565b92915050565b600080604083850312156115a1576115a061139b565b5b60006115af85828601611575565b92505060206115c085828601611575565b9150509250929050565b600081519050919050565b600082825260208201905092915050565b60005b838110156116045780820151818401526020810190506115e9565b60008484015250505050565b6000601f19601f8301169050919050565b600061162c826115ca565b61163681856115d5565b93506116468185602086016115e6565b61164f81611610565b840191505092915050565b600060208201905081810360008301526116748184611621565b905092915050565b6116858161154c565b82525050565b60006020820190506116a0600083018461167c565b92915050565b60006116b182611343565b9050919050565b6116c1816116a6565b82525050565b60006020820190506116dc60008301846116b8565b92915050565b6000602082840312156116f8576116f761139b565b5b600061170684828501611465565b91505092915050565b6000602082840312156117255761172461139b565b5b600061173384828501611575565b91505092915050565b82818337505050565b6117516040838361173c565b5050565b600060029050919050565b600081905092915050565b6000819050919050565b6117816040838361173c565b5050565b60006117918383611775565b60408301905092915050565b600082905092915050565b6000604082019050919050565b6117be81611755565b6117c88184611760565b92506117d38261176b565b8060005b8381101561180c576117e9828461179d565b6117f38782611785565b96506117fe836117a8565b9250506001810190506117d7565b505050505050565b600082825260208201905092915050565b600080fd5b60006118368385611814565b93507f07ffffffffffffffffffffffffffffffffffffffffffffffffffffffffffffff83111561186957611868611825565b5b60208302925061187a83858461173c565b82840190509392505050565b60006101208201905061189c6000830188611745565b6118a960408301876117b5565b6118b660c0830186611745565b8181036101008301526118ca81848661182a565b90509695505050505050565b6118df81611516565b81146118ea57600080fd5b50565b6000815190506118fc816118d6565b92915050565b6000602082840312156119185761191761139b565b5b6000611926848285016118ed565b91505092915050565b7f61746f6d6963207175657279207369676e61747572652070726f6f662069732060008201527f6e6f742076616c69640000000000000000000000000000000000000000000000602082015250565b600061198b6029836115d5565b91506119968261192f565b604082019050919050565b600060208201905081810360008301526119ba8161197e565b9050919050565b7f4e487b7100000000000000000000000000000000000000000000000000000000600052603260045260246000fd5b7f7175657279206861736820646f6573206e6f74206d617463682074686520726560008201527f71756573746564206f6e65000000000000000000000000000000000000000000602082015250565b6000611a4c602b836115d5565b9150611a57826119f0565b604082019050919050565b60006020820190508181036000830152611a7b81611a3f565b9050919050565b600080fd5b7f4e487b7100000000000000000000000000000000000000000000000000000000600052604160045260246000fd5b611abf82611610565b810181811067ffffffffffffffff82111715611ade57611add611a87565b5b80604052505050565b6000611af1611391565b9050611afd8282611ab6565b919050565b600081519050611b118161144e565b92915050565b600060c08284031215611b2d57611b2c611a82565b5b611b3760c0611ae7565b90506000611b4784828501611b02565b6000830152506020611b5b84828501611b02565b6020830152506040611b6f84828501611b02565b6040830152506060611b8384828501611b02565b6060830152506080611b9784828501611b02565b60808301525060a0611bab84828501611b02565b60a08301525092915050565b600060c08284031215611bcd57611bcc61139b565b5b6000611bdb84828501611b17565b91505092915050565b7f4769737420726f6f742073746174652069736e277420696e207374617465206360008201527f6f6e747261637400000000000000000000000000000000000000000000000000602082015250565b6000611c406027836115d5565b9150611c4b82611be4565b604082019050919050565b60006020820190508181036000830152611c6f81611c33565b9050919050565b600060e08284031215611c8c57611c8b611a82565b5b611c9660e0611ae7565b90506000611ca684828501611b02565b6000830152506020611cba84828501611b02565b6020830152506040611cce84828501611b02565b6040830152506060611ce284828501611b02565b6060830152506080611cf684828501611b02565b60808301525060a0611d0a84828501611b02565b60a08301525060c0611d1e84828501611b02565b60c08301525092915050565b600060e08284031215611d4057611d3f61139b565b5b6000611d4e84828501611c76565b91505092915050565b7f49737375657220737461746520646f65736e277420657869737420696e20737460008201527f61746520636f6e74726163740000000000000000000000000000000000000000602082015250565b6000611db3602c836115d5565b9150611dbe82611d57565b604082019050919050565b60006020820190508181036000830152611de281611da6565b9050919050565b7f4e6f6e2d5265766f636174696f6e2073746174652069736e277420696e20737460008201527f61746520636f6e747261637420616e64206e6f742067656e6573697300000000602082015250565b6000611e45603c836115d5565b9150611e5082611de9565b604082019050919050565b60006020820190508181036000830152611e7481611e38565b9050919050565b7f737461746520696e207472616e736974696f6e20696e666f20636f6e7461696e60008201527f7320696e76616c69642069640000000000000000000000000000000000000000602082015250565b6000611ed7602c836115d5565b9150611ee282611e7b565b604082019050919050565b60006020820190508181036000830152611f0681611eca565b9050919050565b7f4e6f6e2d4c617465737420737461746520646f65736e277420636f6e7461696e60008201527f207265706c6163656d656e7420696e666f726d6174696f6e0000000000000000602082015250565b6000611f696038836115d5565b9150611f7482611f0d565b604082019050919050565b60006020820190508181036000830152611f9881611f5c565b9050919050565b7f4e487b7100000000000000000000000000000000000000000000000000000000600052601160045260246000fd5b6000611fd9826112c3565b9150611fe4836112c3565b9250828203905081811115611ffc57611ffb611f9f565b5b92915050565b7f4e6f6e2d5265766f636174696f6e207374617465206f6620497373756572206560008201527f7870697265640000000000000000000000000000000000000000000000000000602082015250565b600061205e6026836115d5565b915061206982612002565b604082019050919050565b6000602082019050818103600083015261208d81612051565b9050919050565b7f496e697469616c697a61626c653a20636f6e747261637420697320616c72656160008201527f647920696e697469616c697a6564000000000000000000000000000000000000602082015250565b60006120f0602e836115d5565b91506120fb82612094565b604082019050919050565b6000602082019050818103600083015261211f816120e3565b9050919050565b6000819050919050565b600060ff82169050919050565b600061215861215361214e84612126565b611317565b612130565b9050919050565b6121688161213d565b82525050565b6000602082019050612183600083018461215f565b92915050565b7f4f776e61626c653a206e6577206f776e657220697320746865207a65726f206160008201527f6464726573730000000000000000000000000000000000000000000000000000602082015250565b60006121e56026836115d5565b91506121f082612189565b604082019050919050565b60006020820190508181036000830152612214816121d8565b9050919050565b7f436865636b73756d207265717569726573203239206c656e677468206172726160008201527f7900000000000000000000000000000000000000000000000000000000000000602082015250565b60006122776021836115d5565b91506122828261221b565b604082019050919050565b600060208201905081810360008301526122a68161226a565b9050919050565b600061ffff82169050919050565b60008160f01b9050919050565b60006122d3826122bb565b9050919050565b6122eb6122e6826122ad565b6122c8565b82525050565b60006122fd82846122da565b60028201915081905092915050565b7f69644279746573207265717569726573203331206c656e677468206172726179600082015250565b60006123426020836115d5565b915061234d8261230c565b602082019050919050565b6000602082019050818103600083015261237181612335565b9050919050565b7f496e697469616c697a61626c653a20636f6e7472616374206973206e6f74206960008201527f6e697469616c697a696e67000000000000000000000000000000000000000000602082015250565b60006123d4602b836115d5565b91506123df82612378565b604082019050919050565b60006020820190508181036000830152612403816123c7565b9050919050565b7f4f776e61626c653a2063616c6c6572206973206e6f7420746865206f776e6572600082015250565b60006124406020836115d5565b915061244b8261240a565b602082019050919050565b6000602082019050818103600083015261246f81612433565b9050919050565b6000612481826112c3565b915061248c836112c3565b92508282019050808211156124a4576124a3611f9f565b5b92915050565b7f736c6963655f6f766572666c6f77000000000000000000000000000000000000600082015250565b60006124e0600e836115d5565b91506124eb826124aa565b602082019050919050565b6000602082019050818103600083015261250f816124d3565b9050919050565b7f736c6963655f6f75744f66426f756e6473000000000000000000000000000000600082015250565b600061254c6011836115d5565b915061255782612516565b602082019050919050565b6000602082019050818103600083015261257b8161253f565b9050919050565b600061258d826122ad565b9150612598836122ad565b9250828201905061ffff8111156125b2576125b1611f9f565b5b92915050565b60006125c3826112c3565b91507fffffffffffffffffffffffffffffffffffffffffffffffffffffffffffffffff82036125f5576125f4611f9f565b5b60018201905091905056fe63726564656e7469616c41746f6d6963517565727953696756324f6e436861696ea2646970667358221220294036f15d338a24ccbf973e2bd92512b212528b87988c7fd56286d4dcd56b8164736f6c63430008110033","opcodes":"PUSH1 0x80 PUSH1 0x40 MSTORE CALLVALUE DUP1 ISZERO PUSH2 0x10 JUMPI PUSH1 0x0 DUP1 REVERT JUMPDEST POP PUSH2 0x2657 DUP1 PUSH2 0x20 PUSH1 0x0 CODECOPY PUSH1 0x0 RETURN INVALID PUSH1 0x80 PUSH1 0x40 MSTORE CALLVALUE DUP1 ISZERO PUSH2 0x10 JUMPI PUSH1 0x0 DUP1 REVERT JUMPDEST POP PUSH1 0x4 CALLDATASIZE LT PUSH2 0xA9 JUMPI PUSH1 0x0 CALLDATALOAD PUSH1 0xE0 SHR DUP1 PUSH4 0x715018A6 GT PUSH2 0x71 JUMPI DUP1 PUSH4 0x715018A6 EQ PUSH2 0x154 JUMPI DUP1 PUSH4 0x8DA5CB5B EQ PUSH2 0x15E JUMPI DUP1 PUSH4 0x9F442AFA EQ PUSH2 0x17C JUMPI DUP1 PUSH4 0xC19D93FB EQ PUSH2 0x19A JUMPI DUP1 PUSH4 0xE79CE794 EQ PUSH2 0x1B8 JUMPI DUP1 PUSH4 0xF2FDE38B EQ PUSH2 0x1D4 JUMPI PUSH2 0xA9 JUMP JUMPDEST DUP1 PUSH4 0x23962482 EQ PUSH2 0xAE JUMPI DUP1 PUSH4 0x2B7AC3F3 EQ PUSH2 0xCC JUMPI DUP1 PUSH4 0x434661EF EQ PUSH2 0xEA JUMPI DUP1 PUSH4 0x485CC955 EQ PUSH2 0x11A JUMPI DUP1 PUSH4 0x59A2AEAA EQ PUSH2 0x136 JUMPI JUMPDEST PUSH1 0x0 DUP1 REVERT JUMPDEST PUSH2 0xB6 PUSH2 0x1F0 JUMP JUMPDEST PUSH1 0x40 MLOAD PUSH2 0xC3 SWAP2 SWAP1 PUSH2 0x12DC JUMP JUMPDEST PUSH1 0x40 MLOAD DUP1 SWAP2 SUB SWAP1 RETURN JUMPDEST PUSH2 0xD4 PUSH2 0x1F6 JUMP JUMPDEST PUSH1 0x40 MLOAD PUSH2 0xE1 SWAP2 SWAP1 PUSH2 0x1376 JUMP JUMPDEST PUSH1 0x40 MLOAD DUP1 SWAP2 SUB SWAP1 RETURN JUMPDEST PUSH2 0x104 PUSH1 0x4 DUP1 CALLDATASIZE SUB DUP2 ADD SWAP1 PUSH2 0xFF SWAP2 SWAP1 PUSH2 0x147A JUMP JUMPDEST PUSH2 0x21C JUMP JUMPDEST PUSH1 0x40 MLOAD PUSH2 0x111 SWAP2 SWAP1 PUSH2 0x1531 JUMP JUMPDEST PUSH1 0x40 MLOAD DUP1 SWAP2 SUB SWAP1 RETURN JUMPDEST PUSH2 0x134 PUSH1 0x4 DUP1 CALLDATASIZE SUB DUP2 ADD SWAP1 PUSH2 0x12F SWAP2 SWAP1 PUSH2 0x158A JUMP JUMPDEST PUSH2 0x869 JUMP JUMPDEST STOP JUMPDEST PUSH2 0x13E PUSH2 0xA34 JUMP JUMPDEST PUSH1 0x40 MLOAD PUSH2 0x14B SWAP2 SWAP1 PUSH2 0x165A JUMP JUMPDEST PUSH1 0x40 MLOAD DUP1 SWAP2 SUB SWAP1 RETURN JUMPDEST PUSH2 0x15C PUSH2 0xA54 JUMP JUMPDEST STOP JUMPDEST PUSH2 0x166 PUSH2 0xA68 JUMP JUMPDEST PUSH1 0x40 MLOAD PUSH2 0x173 SWAP2 SWAP1 PUSH2 0x168B JUMP JUMPDEST PUSH1 0x40 MLOAD DUP1 SWAP2 SUB SWAP1 RETURN JUMPDEST PUSH2 0x184 PUSH2 0xA92 JUMP JUMPDEST PUSH1 0x40 MLOAD PUSH2 0x191 SWAP2 SWAP1 PUSH2 0x12DC JUMP JUMPDEST PUSH1 0x40 MLOAD DUP1 SWAP2 SUB SWAP1 RETURN JUMPDEST PUSH2 0x1A2 PUSH2 0xA9B JUMP JUMPDEST PUSH1 0x40 MLOAD PUSH2 0x1AF SWAP2 SWAP1 PUSH2 0x16C7 JUMP JUMPDEST PUSH1 0x40 MLOAD DUP1 SWAP2 SUB SWAP1 RETURN JUMPDEST PUSH2 0x1D2 PUSH1 0x4 DUP1 CALLDATASIZE SUB DUP2 ADD SWAP1 PUSH2 0x1CD SWAP2 SWAP1 PUSH2 0x16E2 JUMP JUMPDEST PUSH2 0xAC1 JUMP JUMPDEST STOP JUMPDEST PUSH2 0x1EE PUSH1 0x4 DUP1 CALLDATASIZE SUB DUP2 ADD SWAP1 PUSH2 0x1E9 SWAP2 SWAP1 PUSH2 0x170F JUMP JUMPDEST PUSH2 0xAD3 JUMP JUMPDEST STOP JUMPDEST PUSH1 0x67 SLOAD DUP2 JUMP JUMPDEST PUSH1 0x65 PUSH1 0x0 SWAP1 SLOAD SWAP1 PUSH2 0x100 EXP SWAP1 DIV PUSH20 0xFFFFFFFFFFFFFFFFFFFFFFFFFFFFFFFFFFFFFFFF AND DUP2 JUMP JUMPDEST PUSH1 0x0 PUSH1 0x65 PUSH1 0x0 SWAP1 SLOAD SWAP1 PUSH2 0x100 EXP SWAP1 DIV PUSH20 0xFFFFFFFFFFFFFFFFFFFFFFFFFFFFFFFFFFFFFFFF AND PUSH20 0xFFFFFFFFFFFFFFFFFFFFFFFFFFFFFFFFFFFFFFFF AND PUSH4 0xC32E370E DUP7 DUP7 DUP7 DUP12 DUP12 PUSH1 0x40 MLOAD DUP7 PUSH4 0xFFFFFFFF AND PUSH1 0xE0 SHL DUP2 MSTORE PUSH1 0x4 ADD PUSH2 0x281 SWAP6 SWAP5 SWAP4 SWAP3 SWAP2 SWAP1 PUSH2 0x1886 JUMP JUMPDEST PUSH1 0x20 PUSH1 0x40 MLOAD DUP1 DUP4 SUB DUP2 DUP7 GAS STATICCALL ISZERO DUP1 ISZERO PUSH2 0x29E JUMPI RETURNDATASIZE PUSH1 0x0 DUP1 RETURNDATACOPY RETURNDATASIZE PUSH1 0x0 REVERT JUMPDEST POP POP POP POP PUSH1 0x40 MLOAD RETURNDATASIZE PUSH1 0x1F NOT PUSH1 0x1F DUP3 ADD AND DUP3 ADD DUP1 PUSH1 0x40 MSTORE POP DUP2 ADD SWAP1 PUSH2 0x2C2 SWAP2 SWAP1 PUSH2 0x1902 JUMP JUMPDEST PUSH2 0x301 JUMPI PUSH1 0x40 MLOAD PUSH32 0x8C379A000000000000000000000000000000000000000000000000000000000 DUP2 MSTORE PUSH1 0x4 ADD PUSH2 0x2F8 SWAP1 PUSH2 0x19A1 JUMP JUMPDEST PUSH1 0x40 MLOAD DUP1 SWAP2 SUB SWAP1 REVERT JUMPDEST DUP2 DUP8 DUP8 PUSH1 0x2 DUP2 DUP2 LT PUSH2 0x316 JUMPI PUSH2 0x315 PUSH2 0x19C1 JUMP JUMPDEST JUMPDEST SWAP1 POP PUSH1 0x20 MUL ADD CALLDATALOAD EQ PUSH2 0x35D JUMPI PUSH1 0x40 MLOAD PUSH32 0x8C379A000000000000000000000000000000000000000000000000000000000 DUP2 MSTORE PUSH1 0x4 ADD PUSH2 0x354 SWAP1 PUSH2 0x1A62 JUMP JUMPDEST PUSH1 0x40 MLOAD DUP1 SWAP2 SUB SWAP1 REVERT JUMPDEST PUSH1 0x0 DUP8 DUP8 PUSH1 0x3 DUP2 DUP2 LT PUSH2 0x373 JUMPI PUSH2 0x372 PUSH2 0x19C1 JUMP JUMPDEST JUMPDEST SWAP1 POP PUSH1 0x20 MUL ADD CALLDATALOAD SWAP1 POP PUSH1 0x0 DUP9 DUP9 PUSH1 0x6 DUP2 DUP2 LT PUSH2 0x392 JUMPI PUSH2 0x391 PUSH2 0x19C1 JUMP JUMPDEST JUMPDEST SWAP1 POP PUSH1 0x20 MUL ADD CALLDATALOAD SWAP1 POP PUSH1 0x0 DUP10 DUP10 PUSH1 0x7 DUP2 DUP2 LT PUSH2 0x3B1 JUMPI PUSH2 0x3B0 PUSH2 0x19C1 JUMP JUMPDEST JUMPDEST SWAP1 POP PUSH1 0x20 MUL ADD CALLDATALOAD SWAP1 POP PUSH1 0x0 DUP11 DUP11 PUSH1 0x9 DUP2 DUP2 LT PUSH2 0x3D0 JUMPI PUSH2 0x3CF PUSH2 0x19C1 JUMP JUMPDEST JUMPDEST SWAP1 POP PUSH1 0x20 MUL ADD CALLDATALOAD SWAP1 POP PUSH1 0x0 PUSH1 0x66 PUSH1 0x0 SWAP1 SLOAD SWAP1 PUSH2 0x100 EXP SWAP1 DIV PUSH20 0xFFFFFFFFFFFFFFFFFFFFFFFFFFFFFFFFFFFFFFFF AND PUSH20 0xFFFFFFFFFFFFFFFFFFFFFFFFFFFFFFFFFFFFFFFF AND PUSH4 0x7C1A66DE DUP6 PUSH1 0x40 MLOAD DUP3 PUSH4 0xFFFFFFFF AND PUSH1 0xE0 SHL DUP2 MSTORE PUSH1 0x4 ADD PUSH2 0x436 SWAP2 SWAP1 PUSH2 0x12DC JUMP JUMPDEST PUSH1 0xC0 PUSH1 0x40 MLOAD DUP1 DUP4 SUB DUP2 DUP7 GAS STATICCALL ISZERO DUP1 ISZERO PUSH2 0x453 JUMPI RETURNDATASIZE PUSH1 0x0 DUP1 RETURNDATACOPY RETURNDATASIZE PUSH1 0x0 REVERT JUMPDEST POP POP POP POP PUSH1 0x40 MLOAD RETURNDATASIZE PUSH1 0x1F NOT PUSH1 0x1F DUP3 ADD AND DUP3 ADD DUP1 PUSH1 0x40 MSTORE POP DUP2 ADD SWAP1 PUSH2 0x477 SWAP2 SWAP1 PUSH2 0x1BB7 JUMP JUMPDEST SWAP1 POP DUP4 DUP2 PUSH1 0x0 ADD MLOAD EQ PUSH2 0x4BF JUMPI PUSH1 0x40 MLOAD PUSH32 0x8C379A000000000000000000000000000000000000000000000000000000000 DUP2 MSTORE PUSH1 0x4 ADD PUSH2 0x4B6 SWAP1 PUSH2 0x1C56 JUMP JUMPDEST PUSH1 0x40 MLOAD DUP1 SWAP2 SUB SWAP1 REVERT JUMPDEST PUSH1 0x0 PUSH2 0x4CB DUP5 DUP8 PUSH2 0xB56 JUMP JUMPDEST SWAP1 POP DUP1 PUSH2 0x5BA JUMPI PUSH1 0x0 PUSH1 0x66 PUSH1 0x0 SWAP1 SLOAD SWAP1 PUSH2 0x100 EXP SWAP1 DIV PUSH20 0xFFFFFFFFFFFFFFFFFFFFFFFFFFFFFFFFFFFFFFFF AND PUSH20 0xFFFFFFFFFFFFFFFFFFFFFFFFFFFFFFFFFFFFFFFF AND PUSH4 0x3622B0BC DUP9 PUSH1 0x40 MLOAD DUP3 PUSH4 0xFFFFFFFF AND PUSH1 0xE0 SHL DUP2 MSTORE PUSH1 0x4 ADD PUSH2 0x52F SWAP2 SWAP1 PUSH2 0x12DC JUMP JUMPDEST PUSH1 0xE0 PUSH1 0x40 MLOAD DUP1 DUP4 SUB DUP2 DUP7 GAS STATICCALL ISZERO DUP1 ISZERO PUSH2 0x54C JUMPI RETURNDATASIZE PUSH1 0x0 DUP1 RETURNDATACOPY RETURNDATASIZE PUSH1 0x0 REVERT JUMPDEST POP POP POP POP PUSH1 0x40 MLOAD RETURNDATASIZE PUSH1 0x1F NOT PUSH1 0x1F DUP3 ADD AND DUP3 ADD DUP1 PUSH1 0x40 MSTORE POP DUP2 ADD SWAP1 PUSH2 0x570 SWAP2 SWAP1 PUSH2 0x1D2A JUMP JUMPDEST SWAP1 POP DUP1 PUSH1 0x0 ADD MLOAD DUP6 EQ PUSH2 0x5B8 JUMPI PUSH1 0x40 MLOAD PUSH32 0x8C379A000000000000000000000000000000000000000000000000000000000 DUP2 MSTORE PUSH1 0x4 ADD PUSH2 0x5AF SWAP1 PUSH2 0x1DC9 JUMP JUMPDEST PUSH1 0x40 MLOAD DUP1 SWAP2 SUB SWAP1 REVERT JUMPDEST POP JUMPDEST PUSH1 0x0 PUSH1 0x66 PUSH1 0x0 SWAP1 SLOAD SWAP1 PUSH2 0x100 EXP SWAP1 DIV PUSH20 0xFFFFFFFFFFFFFFFFFFFFFFFFFFFFFFFFFFFFFFFF AND PUSH20 0xFFFFFFFFFFFFFFFFFFFFFFFFFFFFFFFFFFFFFFFF AND PUSH4 0xB4BDEA55 DUP7 PUSH1 0x40 MLOAD DUP3 PUSH4 0xFFFFFFFF AND PUSH1 0xE0 SHL DUP2 MSTORE PUSH1 0x4 ADD PUSH2 0x617 SWAP2 SWAP1 PUSH2 0x12DC JUMP JUMPDEST PUSH1 0xE0 PUSH1 0x40 MLOAD DUP1 DUP4 SUB DUP2 DUP7 GAS STATICCALL ISZERO DUP1 ISZERO PUSH2 0x634 JUMPI RETURNDATASIZE PUSH1 0x0 DUP1 RETURNDATACOPY RETURNDATASIZE PUSH1 0x0 REVERT JUMPDEST POP POP POP POP PUSH1 0x40 MLOAD RETURNDATASIZE PUSH1 0x1F NOT PUSH1 0x1F DUP3 ADD AND DUP3 ADD DUP1 PUSH1 0x40 MSTORE POP DUP2 ADD SWAP1 PUSH2 0x658 SWAP2 SWAP1 PUSH2 0x1D2A JUMP JUMPDEST SWAP1 POP PUSH1 0x0 DUP2 PUSH1 0x20 ADD MLOAD SUB PUSH2 0x6B4 JUMPI PUSH2 0x670 DUP6 DUP6 PUSH2 0xB56 JUMP JUMPDEST PUSH2 0x6AF JUMPI PUSH1 0x40 MLOAD PUSH32 0x8C379A000000000000000000000000000000000000000000000000000000000 DUP2 MSTORE PUSH1 0x4 ADD PUSH2 0x6A6 SWAP1 PUSH2 0x1E5B JUMP JUMPDEST PUSH1 0x40 MLOAD DUP1 SWAP2 SUB SWAP1 REVERT JUMPDEST PUSH2 0x854 JUMP JUMPDEST DUP4 DUP2 PUSH1 0x20 ADD MLOAD EQ PUSH2 0x853 JUMPI PUSH1 0x0 PUSH1 0x66 PUSH1 0x0 SWAP1 SLOAD SWAP1 PUSH2 0x100 EXP SWAP1 DIV PUSH20 0xFFFFFFFFFFFFFFFFFFFFFFFFFFFFFFFFFFFFFFFF AND PUSH20 0xFFFFFFFFFFFFFFFFFFFFFFFFFFFFFFFFFFFFFFFF AND PUSH4 0x3622B0BC DUP7 PUSH1 0x40 MLOAD DUP3 PUSH4 0xFFFFFFFF AND PUSH1 0xE0 SHL DUP2 MSTORE PUSH1 0x4 ADD PUSH2 0x71C SWAP2 SWAP1 PUSH2 0x12DC JUMP JUMPDEST PUSH1 0xE0 PUSH1 0x40 MLOAD DUP1 DUP4 SUB DUP2 DUP7 GAS STATICCALL ISZERO DUP1 ISZERO PUSH2 0x739 JUMPI RETURNDATASIZE PUSH1 0x0 DUP1 RETURNDATACOPY RETURNDATASIZE PUSH1 0x0 REVERT JUMPDEST POP POP POP POP PUSH1 0x40 MLOAD RETURNDATASIZE PUSH1 0x1F NOT PUSH1 0x1F DUP3 ADD AND DUP3 ADD DUP1 PUSH1 0x40 MSTORE POP DUP2 ADD SWAP1 PUSH2 0x75D SWAP2 SWAP1 PUSH2 0x1D2A JUMP JUMPDEST SWAP1 POP PUSH1 0x0 DUP2 PUSH1 0x0 ADD MLOAD EQ DUP1 PUSH2 0x776 JUMPI POP DUP6 DUP2 PUSH1 0x0 ADD MLOAD EQ ISZERO JUMPDEST ISZERO PUSH2 0x7B6 JUMPI PUSH1 0x40 MLOAD PUSH32 0x8C379A000000000000000000000000000000000000000000000000000000000 DUP2 MSTORE PUSH1 0x4 ADD PUSH2 0x7AD SWAP1 PUSH2 0x1EED JUMP JUMPDEST PUSH1 0x40 MLOAD DUP1 SWAP2 SUB SWAP1 REVERT JUMPDEST PUSH1 0x0 DUP2 PUSH1 0x80 ADD MLOAD SUB PUSH2 0x7FD JUMPI PUSH1 0x40 MLOAD PUSH32 0x8C379A000000000000000000000000000000000000000000000000000000000 DUP2 MSTORE PUSH1 0x4 ADD PUSH2 0x7F4 SWAP1 PUSH2 0x1F7F JUMP JUMPDEST PUSH1 0x40 MLOAD DUP1 SWAP2 SUB SWAP1 REVERT JUMPDEST PUSH1 0x67 SLOAD DUP2 PUSH1 0x80 ADD MLOAD TIMESTAMP PUSH2 0x810 SWAP2 SWAP1 PUSH2 0x1FCE JUMP JUMPDEST GT ISZERO PUSH2 0x851 JUMPI PUSH1 0x40 MLOAD PUSH32 0x8C379A000000000000000000000000000000000000000000000000000000000 DUP2 MSTORE PUSH1 0x4 ADD PUSH2 0x848 SWAP1 PUSH2 0x2074 JUMP JUMPDEST PUSH1 0x40 MLOAD DUP1 SWAP2 SUB SWAP1 REVERT JUMPDEST POP JUMPDEST JUMPDEST PUSH1 0x1 SWAP8 POP POP POP POP POP POP POP POP SWAP7 SWAP6 POP POP POP POP POP POP JUMP JUMPDEST PUSH1 0x0 DUP1 PUSH1 0x1 SWAP1 SLOAD SWAP1 PUSH2 0x100 EXP SWAP1 DIV PUSH1 0xFF AND ISZERO SWAP1 POP DUP1 DUP1 ISZERO PUSH2 0x89A JUMPI POP PUSH1 0x1 PUSH1 0x0 DUP1 SLOAD SWAP1 PUSH2 0x100 EXP SWAP1 DIV PUSH1 0xFF AND PUSH1 0xFF AND LT JUMPDEST DUP1 PUSH2 0x8C7 JUMPI POP PUSH2 0x8A9 ADDRESS PUSH2 0xCA1 JUMP JUMPDEST ISZERO DUP1 ISZERO PUSH2 0x8C6 JUMPI POP PUSH1 0x1 PUSH1 0x0 DUP1 SLOAD SWAP1 PUSH2 0x100 EXP SWAP1 DIV PUSH1 0xFF AND PUSH1 0xFF AND EQ JUMPDEST JUMPDEST PUSH2 0x906 JUMPI PUSH1 0x40 MLOAD PUSH32 0x8C379A000000000000000000000000000000000000000000000000000000000 DUP2 MSTORE PUSH1 0x4 ADD PUSH2 0x8FD SWAP1 PUSH2 0x2106 JUMP JUMPDEST PUSH1 0x40 MLOAD DUP1 SWAP2 SUB SWAP1 REVERT JUMPDEST PUSH1 0x1 PUSH1 0x0 DUP1 PUSH2 0x100 EXP DUP2 SLOAD DUP2 PUSH1 0xFF MUL NOT AND SWAP1 DUP4 PUSH1 0xFF AND MUL OR SWAP1 SSTORE POP DUP1 ISZERO PUSH2 0x943 JUMPI PUSH1 0x1 PUSH1 0x0 PUSH1 0x1 PUSH2 0x100 EXP DUP2 SLOAD DUP2 PUSH1 0xFF MUL NOT AND SWAP1 DUP4 ISZERO ISZERO MUL OR SWAP1 SSTORE POP JUMPDEST PUSH2 0xE10 PUSH1 0x67 DUP2 SWAP1 SSTORE POP DUP3 PUSH1 0x65 PUSH1 0x0 PUSH2 0x100 EXP DUP2 SLOAD DUP2 PUSH20 0xFFFFFFFFFFFFFFFFFFFFFFFFFFFFFFFFFFFFFFFF MUL NOT AND SWAP1 DUP4 PUSH20 0xFFFFFFFFFFFFFFFFFFFFFFFFFFFFFFFFFFFFFFFF AND MUL OR SWAP1 SSTORE POP DUP2 PUSH1 0x66 PUSH1 0x0 PUSH2 0x100 EXP DUP2 SLOAD DUP2 PUSH20 0xFFFFFFFFFFFFFFFFFFFFFFFFFFFFFFFFFFFFFFFF MUL NOT AND SWAP1 DUP4 PUSH20 0xFFFFFFFFFFFFFFFFFFFFFFFFFFFFFFFFFFFFFFFF AND MUL OR SWAP1 SSTORE POP PUSH2 0x9D6 PUSH2 0xCC4 JUMP JUMPDEST DUP1 ISZERO PUSH2 0xA2F JUMPI PUSH1 0x0 DUP1 PUSH1 0x1 PUSH2 0x100 EXP DUP2 SLOAD DUP2 PUSH1 0xFF MUL NOT AND SWAP1 DUP4 ISZERO ISZERO MUL OR SWAP1 SSTORE POP PUSH32 0x7F26B83FF96E1F2B6A682F133852F6798A09C465DA95921460CEFB3847402498 PUSH1 0x1 PUSH1 0x40 MLOAD PUSH2 0xA26 SWAP2 SWAP1 PUSH2 0x216E JUMP JUMPDEST PUSH1 0x40 MLOAD DUP1 SWAP2 SUB SWAP1 LOG1 JUMPDEST POP POP POP JUMP JUMPDEST PUSH1 0x60 PUSH1 0x40 MLOAD DUP1 PUSH1 0x60 ADD PUSH1 0x40 MSTORE DUP1 PUSH1 0x21 DUP2 MSTORE PUSH1 0x20 ADD PUSH2 0x2601 PUSH1 0x21 SWAP2 CODECOPY SWAP1 POP SWAP1 JUMP JUMPDEST PUSH2 0xA5C PUSH2 0xD1D JUMP JUMPDEST PUSH2 0xA66 PUSH1 0x0 PUSH2 0xD9B JUMP JUMPDEST JUMP JUMPDEST PUSH1 0x0 PUSH1 0x33 PUSH1 0x0 SWAP1 SLOAD SWAP1 PUSH2 0x100 EXP SWAP1 DIV PUSH20 0xFFFFFFFFFFFFFFFFFFFFFFFFFFFFFFFFFFFFFFFF AND SWAP1 POP SWAP1 JUMP JUMPDEST PUSH1 0x0 PUSH1 0x5 SWAP1 POP SWAP1 JUMP JUMPDEST PUSH1 0x66 PUSH1 0x0 SWAP1 SLOAD SWAP1 PUSH2 0x100 EXP SWAP1 DIV PUSH20 0xFFFFFFFFFFFFFFFFFFFFFFFFFFFFFFFFFFFFFFFF AND DUP2 JUMP JUMPDEST PUSH2 0xAC9 PUSH2 0xD1D JUMP JUMPDEST DUP1 PUSH1 0x67 DUP2 SWAP1 SSTORE POP POP JUMP JUMPDEST PUSH2 0xADB PUSH2 0xD1D JUMP JUMPDEST PUSH1 0x0 PUSH20 0xFFFFFFFFFFFFFFFFFFFFFFFFFFFFFFFFFFFFFFFF AND DUP2 PUSH20 0xFFFFFFFFFFFFFFFFFFFFFFFFFFFFFFFFFFFFFFFF AND SUB PUSH2 0xB4A JUMPI PUSH1 0x40 MLOAD PUSH32 0x8C379A000000000000000000000000000000000000000000000000000000000 DUP2 MSTORE PUSH1 0x4 ADD PUSH2 0xB41 SWAP1 PUSH2 0x21FB JUMP JUMPDEST PUSH1 0x40 MLOAD DUP1 SWAP2 SUB SWAP1 REVERT JUMPDEST PUSH2 0xB53 DUP2 PUSH2 0xD9B JUMP JUMPDEST POP JUMP JUMPDEST PUSH1 0x0 DUP1 PUSH2 0xB62 DUP4 PUSH2 0xE61 JUMP JUMPDEST SWAP1 POP PUSH1 0x0 PUSH2 0xB6F DUP3 PUSH2 0xFAD JUMP JUMPDEST SWAP1 POP PUSH1 0x0 PUSH2 0xB8C DUP3 PUSH1 0x1B DUP5 MLOAD PUSH2 0xB85 SWAP2 SWAP1 PUSH2 0x1FCE JUMP JUMPDEST PUSH1 0x1B PUSH2 0x100A JUMP JUMPDEST SWAP1 POP PUSH1 0x0 PUSH1 0x40 MLOAD DUP1 PUSH1 0x40 ADD PUSH1 0x40 MSTORE DUP1 PUSH1 0x2 DUP2 MSTORE PUSH1 0x20 ADD PUSH1 0x0 DUP2 MSTORE POP SWAP1 POP PUSH1 0x0 PUSH2 0xBB5 DUP3 DUP5 PUSH2 0x1128 JUMP JUMPDEST SWAP1 POP PUSH1 0x1D DUP2 MLOAD EQ PUSH2 0xBFB JUMPI PUSH1 0x40 MLOAD PUSH32 0x8C379A000000000000000000000000000000000000000000000000000000000 DUP2 MSTORE PUSH1 0x4 ADD PUSH2 0xBF2 SWAP1 PUSH2 0x228D JUMP JUMPDEST PUSH1 0x40 MLOAD DUP1 SWAP2 SUB SWAP1 REVERT JUMPDEST PUSH1 0x0 PUSH2 0xC06 DUP3 PUSH2 0x11B2 JUMP JUMPDEST SWAP1 POP PUSH1 0x0 DUP2 PUSH1 0x40 MLOAD PUSH1 0x20 ADD PUSH2 0xC1B SWAP2 SWAP1 PUSH2 0x22F1 JUMP JUMPDEST PUSH1 0x40 MLOAD PUSH1 0x20 DUP2 DUP4 SUB SUB DUP2 MSTORE SWAP1 PUSH1 0x40 MSTORE SWAP1 POP PUSH1 0x0 PUSH2 0xC38 DUP5 DUP4 PUSH2 0x1128 JUMP JUMPDEST SWAP1 POP PUSH1 0x1F DUP2 MLOAD EQ PUSH2 0xC7E JUMPI PUSH1 0x40 MLOAD PUSH32 0x8C379A000000000000000000000000000000000000000000000000000000000 DUP2 MSTORE PUSH1 0x4 ADD PUSH2 0xC75 SWAP1 PUSH2 0x2358 JUMP JUMPDEST PUSH1 0x40 MLOAD DUP1 SWAP2 SUB SWAP1 REVERT JUMPDEST PUSH2 0xC8F PUSH2 0xC8A DUP3 PUSH2 0x124C JUMP JUMPDEST PUSH2 0xE61 JUMP JUMPDEST DUP12 EQ SWAP9 POP POP POP POP POP POP POP POP POP SWAP3 SWAP2 POP POP JUMP JUMPDEST PUSH1 0x0 DUP1 DUP3 PUSH20 0xFFFFFFFFFFFFFFFFFFFFFFFFFFFFFFFFFFFFFFFF AND EXTCODESIZE GT SWAP1 POP SWAP2 SWAP1 POP JUMP JUMPDEST PUSH1 0x0 PUSH1 0x1 SWAP1 SLOAD SWAP1 PUSH2 0x100 EXP SWAP1 DIV PUSH1 0xFF AND PUSH2 0xD13 JUMPI PUSH1 0x40 MLOAD PUSH32 0x8C379A000000000000000000000000000000000000000000000000000000000 DUP2 MSTORE PUSH1 0x4 ADD PUSH2 0xD0A SWAP1 PUSH2 0x23EA JUMP JUMPDEST PUSH1 0x40 MLOAD DUP1 SWAP2 SUB SWAP1 REVERT JUMPDEST PUSH2 0xD1B PUSH2 0x125A JUMP JUMPDEST JUMP JUMPDEST PUSH2 0xD25 PUSH2 0x12BB JUMP JUMPDEST PUSH20 0xFFFFFFFFFFFFFFFFFFFFFFFFFFFFFFFFFFFFFFFF AND PUSH2 0xD43 PUSH2 0xA68 JUMP JUMPDEST PUSH20 0xFFFFFFFFFFFFFFFFFFFFFFFFFFFFFFFFFFFFFFFF AND EQ PUSH2 0xD99 JUMPI PUSH1 0x40 MLOAD PUSH32 0x8C379A000000000000000000000000000000000000000000000000000000000 DUP2 MSTORE PUSH1 0x4 ADD PUSH2 0xD90 SWAP1 PUSH2 0x2456 JUMP JUMPDEST PUSH1 0x40 MLOAD DUP1 SWAP2 SUB SWAP1 REVERT JUMPDEST JUMP JUMPDEST PUSH1 0x0 PUSH1 0x33 PUSH1 0x0 SWAP1 SLOAD SWAP1 PUSH2 0x100 EXP SWAP1 DIV PUSH20 0xFFFFFFFFFFFFFFFFFFFFFFFFFFFFFFFFFFFFFFFF AND SWAP1 POP DUP2 PUSH1 0x33 PUSH1 0x0 PUSH2 0x100 EXP DUP2 SLOAD DUP2 PUSH20 0xFFFFFFFFFFFFFFFFFFFFFFFFFFFFFFFFFFFFFFFF MUL NOT AND SWAP1 DUP4 PUSH20 0xFFFFFFFFFFFFFFFFFFFFFFFFFFFFFFFFFFFFFFFF AND MUL OR SWAP1 SSTORE POP DUP2 PUSH20 0xFFFFFFFFFFFFFFFFFFFFFFFFFFFFFFFFFFFFFFFF AND DUP2 PUSH20 0xFFFFFFFFFFFFFFFFFFFFFFFFFFFFFFFFFFFFFFFF AND PUSH32 0x8BE0079C531659141344CD1FD0A4F28419497F9722A3DAAFE3B4186F6B6457E0 PUSH1 0x40 MLOAD PUSH1 0x40 MLOAD DUP1 SWAP2 SUB SWAP1 LOG3 POP POP JUMP JUMPDEST PUSH1 0x0 DUP2 SWAP1 POP PUSH1 0x8 PUSH31 0xFF00FF00FF00FF00FF00FF00FF00FF00FF00FF00FF00FF00FF00FF00FF00FF DUP3 AND SWAP1 SHL PUSH1 0x8 PUSH32 0xFF00FF00FF00FF00FF00FF00FF00FF00FF00FF00FF00FF00FF00FF00FF00FF00 DUP4 AND SWAP1 SHR OR SWAP1 POP PUSH1 0x10 PUSH30 0xFFFF0000FFFF0000FFFF0000FFFF0000FFFF0000FFFF0000FFFF0000FFFF DUP3 AND SWAP1 SHL PUSH1 0x10 PUSH32 0xFFFF0000FFFF0000FFFF0000FFFF0000FFFF0000FFFF0000FFFF0000FFFF0000 DUP4 AND SWAP1 SHR OR SWAP1 POP PUSH1 0x20 PUSH28 0xFFFFFFFF00000000FFFFFFFF00000000FFFFFFFF00000000FFFFFFFF DUP3 AND SWAP1 SHL PUSH1 0x20 PUSH32 0xFFFFFFFF00000000FFFFFFFF00000000FFFFFFFF00000000FFFFFFFF00000000 DUP4 AND SWAP1 SHR OR SWAP1 POP PUSH1 0x40 PUSH24 0xFFFFFFFFFFFFFFFF0000000000000000FFFFFFFFFFFFFFFF DUP3 AND SWAP1 SHL PUSH1 0x40 PUSH32 0xFFFFFFFFFFFFFFFF0000000000000000FFFFFFFFFFFFFFFF0000000000000000 DUP4 AND SWAP1 SHR OR SWAP1 POP PUSH1 0x80 DUP2 SWAP1 SHL PUSH1 0x80 DUP3 SWAP1 SHR OR SWAP1 POP SWAP2 SWAP1 POP JUMP JUMPDEST PUSH1 0x60 PUSH1 0x20 PUSH8 0xFFFFFFFFFFFFFFFF DUP2 GT ISZERO PUSH2 0xFCA JUMPI PUSH2 0xFC9 PUSH2 0x1A87 JUMP JUMPDEST JUMPDEST PUSH1 0x40 MLOAD SWAP1 DUP1 DUP3 MSTORE DUP1 PUSH1 0x1F ADD PUSH1 0x1F NOT AND PUSH1 0x20 ADD DUP3 ADD PUSH1 0x40 MSTORE DUP1 ISZERO PUSH2 0xFFC JUMPI DUP2 PUSH1 0x20 ADD PUSH1 0x1 DUP3 MUL DUP1 CALLDATASIZE DUP4 CALLDATACOPY DUP1 DUP3 ADD SWAP2 POP POP SWAP1 POP JUMPDEST POP SWAP1 POP DUP2 PUSH1 0x20 DUP3 ADD MSTORE SWAP2 SWAP1 POP JUMP JUMPDEST PUSH1 0x60 DUP2 PUSH1 0x1F DUP4 PUSH2 0x101A SWAP2 SWAP1 PUSH2 0x2476 JUMP JUMPDEST LT ISZERO PUSH2 0x105B JUMPI PUSH1 0x40 MLOAD PUSH32 0x8C379A000000000000000000000000000000000000000000000000000000000 DUP2 MSTORE PUSH1 0x4 ADD PUSH2 0x1052 SWAP1 PUSH2 0x24F6 JUMP JUMPDEST PUSH1 0x40 MLOAD DUP1 SWAP2 SUB SWAP1 REVERT JUMPDEST DUP2 DUP4 PUSH2 0x1067 SWAP2 SWAP1 PUSH2 0x2476 JUMP JUMPDEST DUP5 MLOAD LT ISZERO PUSH2 0x10AA JUMPI PUSH1 0x40 MLOAD PUSH32 0x8C379A000000000000000000000000000000000000000000000000000000000 DUP2 MSTORE PUSH1 0x4 ADD PUSH2 0x10A1 SWAP1 PUSH2 0x2562 JUMP JUMPDEST PUSH1 0x40 MLOAD DUP1 SWAP2 SUB SWAP1 REVERT JUMPDEST PUSH1 0x60 DUP3 ISZERO PUSH1 0x0 DUP2 EQ PUSH2 0x10CB JUMPI PUSH1 0x40 MLOAD SWAP2 POP PUSH1 0x0 DUP3 MSTORE PUSH1 0x20 DUP3 ADD PUSH1 0x40 MSTORE PUSH2 0x111C JUMP JUMPDEST PUSH1 0x40 MLOAD SWAP2 POP PUSH1 0x1F DUP5 AND DUP1 ISZERO PUSH1 0x20 MUL DUP2 DUP5 ADD ADD DUP6 DUP2 ADD DUP8 DUP4 ISZERO PUSH1 0x20 MUL DUP5 DUP12 ADD ADD ADD JUMPDEST DUP2 DUP4 LT ISZERO PUSH2 0x1109 JUMPI DUP1 MLOAD DUP4 MSTORE PUSH1 0x20 DUP4 ADD SWAP3 POP PUSH1 0x20 DUP2 ADD SWAP1 POP PUSH2 0x10EC JUMP JUMPDEST POP DUP7 DUP6 MSTORE PUSH1 0x1F NOT PUSH1 0x1F DUP4 ADD AND PUSH1 0x40 MSTORE POP POP POP JUMPDEST POP DUP1 SWAP2 POP POP SWAP4 SWAP3 POP POP POP JUMP JUMPDEST PUSH1 0x60 DUP1 PUSH1 0x40 MLOAD SWAP1 POP DUP4 MLOAD DUP1 DUP3 MSTORE PUSH1 0x20 DUP3 ADD DUP2 DUP2 ADD PUSH1 0x20 DUP8 ADD JUMPDEST DUP2 DUP4 LT ISZERO PUSH2 0x115E JUMPI DUP1 MLOAD DUP4 MSTORE PUSH1 0x20 DUP4 ADD SWAP3 POP PUSH1 0x20 DUP2 ADD SWAP1 POP PUSH2 0x1141 JUMP JUMPDEST POP DUP6 MLOAD SWAP3 POP DUP4 MLOAD DUP4 ADD DUP5 MSTORE DUP1 SWAP2 POP DUP3 DUP3 ADD SWAP1 POP PUSH1 0x20 DUP7 ADD JUMPDEST DUP2 DUP4 LT ISZERO PUSH2 0x1193 JUMPI DUP1 MLOAD DUP4 MSTORE PUSH1 0x20 DUP4 ADD SWAP3 POP PUSH1 0x20 DUP2 ADD SWAP1 POP PUSH2 0x1176 JUMP JUMPDEST POP PUSH1 0x1F NOT PUSH1 0x1F DUP9 MLOAD DUP6 ADD ISZERO DUP4 ADD ADD AND PUSH1 0x40 MSTORE POP POP POP DUP1 SWAP2 POP POP SWAP3 SWAP2 POP POP JUMP JUMPDEST PUSH1 0x0 PUSH1 0x1D DUP3 MLOAD EQ PUSH2 0x11F8 JUMPI PUSH1 0x40 MLOAD PUSH32 0x8C379A000000000000000000000000000000000000000000000000000000000 DUP2 MSTORE PUSH1 0x4 ADD PUSH2 0x11EF SWAP1 PUSH2 0x228D JUMP JUMPDEST PUSH1 0x40 MLOAD DUP1 SWAP2 SUB SWAP1 REVERT JUMPDEST PUSH1 0x0 JUMPDEST DUP3 MLOAD DUP2 LT ISZERO PUSH2 0x1246 JUMPI DUP3 DUP2 DUP2 MLOAD DUP2 LT PUSH2 0x1217 JUMPI PUSH2 0x1216 PUSH2 0x19C1 JUMP JUMPDEST JUMPDEST PUSH1 0x20 ADD ADD MLOAD PUSH1 0xF8 SHR PUSH1 0xF8 SHL PUSH1 0xF8 SHR PUSH1 0xFF AND DUP3 PUSH2 0x1233 SWAP2 SWAP1 PUSH2 0x2582 JUMP JUMPDEST SWAP2 POP DUP1 PUSH2 0x123F SWAP1 PUSH2 0x25B8 JUMP JUMPDEST SWAP1 POP PUSH2 0x11FB JUMP JUMPDEST POP SWAP2 SWAP1 POP JUMP JUMPDEST PUSH1 0x0 PUSH1 0x20 DUP3 ADD MLOAD SWAP1 POP SWAP2 SWAP1 POP JUMP JUMPDEST PUSH1 0x0 PUSH1 0x1 SWAP1 SLOAD SWAP1 PUSH2 0x100 EXP SWAP1 DIV PUSH1 0xFF AND PUSH2 0x12A9 JUMPI PUSH1 0x40 MLOAD PUSH32 0x8C379A000000000000000000000000000000000000000000000000000000000 DUP2 MSTORE PUSH1 0x4 ADD PUSH2 0x12A0 SWAP1 PUSH2 0x23EA JUMP JUMPDEST PUSH1 0x40 MLOAD DUP1 SWAP2 SUB SWAP1 REVERT JUMPDEST PUSH2 0x12B9 PUSH2 0x12B4 PUSH2 0x12BB JUMP JUMPDEST PUSH2 0xD9B JUMP JUMPDEST JUMP JUMPDEST PUSH1 0x0 CALLER SWAP1 POP SWAP1 JUMP JUMPDEST PUSH1 0x0 DUP2 SWAP1 POP SWAP2 SWAP1 POP JUMP JUMPDEST PUSH2 0x12D6 DUP2 PUSH2 0x12C3 JUMP JUMPDEST DUP3 MSTORE POP POP JUMP JUMPDEST PUSH1 0x0 PUSH1 0x20 DUP3 ADD SWAP1 POP PUSH2 0x12F1 PUSH1 0x0 DUP4 ADD DUP5 PUSH2 0x12CD JUMP JUMPDEST SWAP3 SWAP2 POP POP JUMP JUMPDEST PUSH1 0x0 PUSH20 0xFFFFFFFFFFFFFFFFFFFFFFFFFFFFFFFFFFFFFFFF DUP3 AND SWAP1 POP SWAP2 SWAP1 POP JUMP JUMPDEST PUSH1 0x0 DUP2 SWAP1 POP SWAP2 SWAP1 POP JUMP JUMPDEST PUSH1 0x0 PUSH2 0x133C PUSH2 0x1337 PUSH2 0x1332 DUP5 PUSH2 0x12F7 JUMP JUMPDEST PUSH2 0x1317 JUMP JUMPDEST PUSH2 0x12F7 JUMP JUMPDEST SWAP1 POP SWAP2 SWAP1 POP JUMP JUMPDEST PUSH1 0x0 PUSH2 0x134E DUP3 PUSH2 0x1321 JUMP JUMPDEST SWAP1 POP SWAP2 SWAP1 POP JUMP JUMPDEST PUSH1 0x0 PUSH2 0x1360 DUP3 PUSH2 0x1343 JUMP JUMPDEST SWAP1 POP SWAP2 SWAP1 POP JUMP JUMPDEST PUSH2 0x1370 DUP2 PUSH2 0x1355 JUMP JUMPDEST DUP3 MSTORE POP POP JUMP JUMPDEST PUSH1 0x0 PUSH1 0x20 DUP3 ADD SWAP1 POP PUSH2 0x138B PUSH1 0x0 DUP4 ADD DUP5 PUSH2 0x1367 JUMP JUMPDEST SWAP3 SWAP2 POP POP JUMP JUMPDEST PUSH1 0x0 PUSH1 0x40 MLOAD SWAP1 POP SWAP1 JUMP JUMPDEST PUSH1 0x0 DUP1 REVERT JUMPDEST PUSH1 0x0 DUP1 REVERT JUMPDEST PUSH1 0x0 DUP1 REVERT JUMPDEST PUSH1 0x0 DUP1 REVERT JUMPDEST PUSH1 0x0 DUP1 REVERT JUMPDEST PUSH1 0x0 DUP1 DUP4 PUSH1 0x1F DUP5 ADD SLT PUSH2 0x13CA JUMPI PUSH2 0x13C9 PUSH2 0x13A5 JUMP JUMPDEST JUMPDEST DUP3 CALLDATALOAD SWAP1 POP PUSH8 0xFFFFFFFFFFFFFFFF DUP2 GT ISZERO PUSH2 0x13E7 JUMPI PUSH2 0x13E6 PUSH2 0x13AA JUMP JUMPDEST JUMPDEST PUSH1 0x20 DUP4 ADD SWAP2 POP DUP4 PUSH1 0x20 DUP3 MUL DUP4 ADD GT ISZERO PUSH2 0x1403 JUMPI PUSH2 0x1402 PUSH2 0x13AF JUMP JUMPDEST JUMPDEST SWAP3 POP SWAP3 SWAP1 POP JUMP JUMPDEST PUSH1 0x0 DUP2 SWAP1 POP DUP3 PUSH1 0x20 PUSH1 0x2 MUL DUP3 ADD GT ISZERO PUSH2 0x1426 JUMPI PUSH2 0x1425 PUSH2 0x13AF JUMP JUMPDEST JUMPDEST SWAP3 SWAP2 POP POP JUMP JUMPDEST PUSH1 0x0 DUP2 SWAP1 POP DUP3 PUSH1 0x40 PUSH1 0x2 MUL DUP3 ADD GT ISZERO PUSH2 0x1448 JUMPI PUSH2 0x1447 PUSH2 0x13AF JUMP JUMPDEST JUMPDEST SWAP3 SWAP2 POP POP JUMP JUMPDEST PUSH2 0x1457 DUP2 PUSH2 0x12C3 JUMP JUMPDEST DUP2 EQ PUSH2 0x1462 JUMPI PUSH1 0x0 DUP1 REVERT JUMPDEST POP JUMP JUMPDEST PUSH1 0x0 DUP2 CALLDATALOAD SWAP1 POP PUSH2 0x1474 DUP2 PUSH2 0x144E JUMP JUMPDEST SWAP3 SWAP2 POP POP JUMP JUMPDEST PUSH1 0x0 DUP1 PUSH1 0x0 DUP1 PUSH1 0x0 DUP1 PUSH2 0x140 DUP8 DUP10 SUB SLT ISZERO PUSH2 0x1498 JUMPI PUSH2 0x1497 PUSH2 0x139B JUMP JUMPDEST JUMPDEST PUSH1 0x0 DUP8 ADD CALLDATALOAD PUSH8 0xFFFFFFFFFFFFFFFF DUP2 GT ISZERO PUSH2 0x14B6 JUMPI PUSH2 0x14B5 PUSH2 0x13A0 JUMP JUMPDEST JUMPDEST PUSH2 0x14C2 DUP10 DUP3 DUP11 ADD PUSH2 0x13B4 JUMP JUMPDEST SWAP7 POP SWAP7 POP POP PUSH1 0x20 PUSH2 0x14D5 DUP10 DUP3 DUP11 ADD PUSH2 0x140A JUMP JUMPDEST SWAP5 POP POP PUSH1 0x60 PUSH2 0x14E6 DUP10 DUP3 DUP11 ADD PUSH2 0x142C JUMP JUMPDEST SWAP4 POP POP PUSH1 0xE0 PUSH2 0x14F7 DUP10 DUP3 DUP11 ADD PUSH2 0x140A JUMP JUMPDEST SWAP3 POP POP PUSH2 0x120 PUSH2 0x1509 DUP10 DUP3 DUP11 ADD PUSH2 0x1465 JUMP JUMPDEST SWAP2 POP POP SWAP3 SWAP6 POP SWAP3 SWAP6 POP SWAP3 SWAP6 JUMP JUMPDEST PUSH1 0x0 DUP2 ISZERO ISZERO SWAP1 POP SWAP2 SWAP1 POP JUMP JUMPDEST PUSH2 0x152B DUP2 PUSH2 0x1516 JUMP JUMPDEST DUP3 MSTORE POP POP JUMP JUMPDEST PUSH1 0x0 PUSH1 0x20 DUP3 ADD SWAP1 POP PUSH2 0x1546 PUSH1 0x0 DUP4 ADD DUP5 PUSH2 0x1522 JUMP JUMPDEST SWAP3 SWAP2 POP POP JUMP JUMPDEST PUSH1 0x0 PUSH2 0x1557 DUP3 PUSH2 0x12F7 JUMP JUMPDEST SWAP1 POP SWAP2 SWAP1 POP JUMP JUMPDEST PUSH2 0x1567 DUP2 PUSH2 0x154C JUMP JUMPDEST DUP2 EQ PUSH2 0x1572 JUMPI PUSH1 0x0 DUP1 REVERT JUMPDEST POP JUMP JUMPDEST PUSH1 0x0 DUP2 CALLDATALOAD SWAP1 POP PUSH2 0x1584 DUP2 PUSH2 0x155E JUMP JUMPDEST SWAP3 SWAP2 POP POP JUMP JUMPDEST PUSH1 0x0 DUP1 PUSH1 0x40 DUP4 DUP6 SUB SLT ISZERO PUSH2 0x15A1 JUMPI PUSH2 0x15A0 PUSH2 0x139B JUMP JUMPDEST JUMPDEST PUSH1 0x0 PUSH2 0x15AF DUP6 DUP3 DUP7 ADD PUSH2 0x1575 JUMP JUMPDEST SWAP3 POP POP PUSH1 0x20 PUSH2 0x15C0 DUP6 DUP3 DUP7 ADD PUSH2 0x1575 JUMP JUMPDEST SWAP2 POP POP SWAP3 POP SWAP3 SWAP1 POP JUMP JUMPDEST PUSH1 0x0 DUP2 MLOAD SWAP1 POP SWAP2 SWAP1 POP JUMP JUMPDEST PUSH1 0x0 DUP3 DUP3 MSTORE PUSH1 0x20 DUP3 ADD SWAP1 POP SWAP3 SWAP2 POP POP JUMP JUMPDEST PUSH1 0x0 JUMPDEST DUP4 DUP2 LT ISZERO PUSH2 0x1604 JUMPI DUP1 DUP3 ADD MLOAD DUP2 DUP5 ADD MSTORE PUSH1 0x20 DUP2 ADD SWAP1 POP PUSH2 0x15E9 JUMP JUMPDEST PUSH1 0x0 DUP5 DUP5 ADD MSTORE POP POP POP POP JUMP JUMPDEST PUSH1 0x0 PUSH1 0x1F NOT PUSH1 0x1F DUP4 ADD AND SWAP1 POP SWAP2 SWAP1 POP JUMP JUMPDEST PUSH1 0x0 PUSH2 0x162C DUP3 PUSH2 0x15CA JUMP JUMPDEST PUSH2 0x1636 DUP2 DUP6 PUSH2 0x15D5 JUMP JUMPDEST SWAP4 POP PUSH2 0x1646 DUP2 DUP6 PUSH1 0x20 DUP7 ADD PUSH2 0x15E6 JUMP JUMPDEST PUSH2 0x164F DUP2 PUSH2 0x1610 JUMP JUMPDEST DUP5 ADD SWAP2 POP POP SWAP3 SWAP2 POP POP JUMP JUMPDEST PUSH1 0x0 PUSH1 0x20 DUP3 ADD SWAP1 POP DUP2 DUP2 SUB PUSH1 0x0 DUP4 ADD MSTORE PUSH2 0x1674 DUP2 DUP5 PUSH2 0x1621 JUMP JUMPDEST SWAP1 POP SWAP3 SWAP2 POP POP JUMP JUMPDEST PUSH2 0x1685 DUP2 PUSH2 0x154C JUMP JUMPDEST DUP3 MSTORE POP POP JUMP JUMPDEST PUSH1 0x0 PUSH1 0x20 DUP3 ADD SWAP1 POP PUSH2 0x16A0 PUSH1 0x0 DUP4 ADD DUP5 PUSH2 0x167C JUMP JUMPDEST SWAP3 SWAP2 POP POP JUMP JUMPDEST PUSH1 0x0 PUSH2 0x16B1 DUP3 PUSH2 0x1343 JUMP JUMPDEST SWAP1 POP SWAP2 SWAP1 POP JUMP JUMPDEST PUSH2 0x16C1 DUP2 PUSH2 0x16A6 JUMP JUMPDEST DUP3 MSTORE POP POP JUMP JUMPDEST PUSH1 0x0 PUSH1 0x20 DUP3 ADD SWAP1 POP PUSH2 0x16DC PUSH1 0x0 DUP4 ADD DUP5 PUSH2 0x16B8 JUMP JUMPDEST SWAP3 SWAP2 POP POP JUMP JUMPDEST PUSH1 0x0 PUSH1 0x20 DUP3 DUP5 SUB SLT ISZERO PUSH2 0x16F8 JUMPI PUSH2 0x16F7 PUSH2 0x139B JUMP JUMPDEST JUMPDEST PUSH1 0x0 PUSH2 0x1706 DUP5 DUP3 DUP6 ADD PUSH2 0x1465 JUMP JUMPDEST SWAP2 POP POP SWAP3 SWAP2 POP POP JUMP JUMPDEST PUSH1 0x0 PUSH1 0x20 DUP3 DUP5 SUB SLT ISZERO PUSH2 0x1725 JUMPI PUSH2 0x1724 PUSH2 0x139B JUMP JUMPDEST JUMPDEST PUSH1 0x0 PUSH2 0x1733 DUP5 DUP3 DUP6 ADD PUSH2 0x1575 JUMP JUMPDEST SWAP2 POP POP SWAP3 SWAP2 POP POP JUMP JUMPDEST DUP3 DUP2 DUP4 CALLDATACOPY POP POP POP JUMP JUMPDEST PUSH2 0x1751 PUSH1 0x40 DUP4 DUP4 PUSH2 0x173C JUMP JUMPDEST POP POP JUMP JUMPDEST PUSH1 0x0 PUSH1 0x2 SWAP1 POP SWAP2 SWAP1 POP JUMP JUMPDEST PUSH1 0x0 DUP2 SWAP1 POP SWAP3 SWAP2 POP POP JUMP JUMPDEST PUSH1 0x0 DUP2 SWAP1 POP SWAP2 SWAP1 POP JUMP JUMPDEST PUSH2 0x1781 PUSH1 0x40 DUP4 DUP4 PUSH2 0x173C JUMP JUMPDEST POP POP JUMP JUMPDEST PUSH1 0x0 PUSH2 0x1791 DUP4 DUP4 PUSH2 0x1775 JUMP JUMPDEST PUSH1 0x40 DUP4 ADD SWAP1 POP SWAP3 SWAP2 POP POP JUMP JUMPDEST PUSH1 0x0 DUP3 SWAP1 POP SWAP3 SWAP2 POP POP JUMP JUMPDEST PUSH1 0x0 PUSH1 0x40 DUP3 ADD SWAP1 POP SWAP2 SWAP1 POP JUMP JUMPDEST PUSH2 0x17BE DUP2 PUSH2 0x1755 JUMP JUMPDEST PUSH2 0x17C8 DUP2 DUP5 PUSH2 0x1760 JUMP JUMPDEST SWAP3 POP PUSH2 0x17D3 DUP3 PUSH2 0x176B JUMP JUMPDEST DUP1 PUSH1 0x0 JUMPDEST DUP4 DUP2 LT ISZERO PUSH2 0x180C JUMPI PUSH2 0x17E9 DUP3 DUP5 PUSH2 0x179D JUMP JUMPDEST PUSH2 0x17F3 DUP8 DUP3 PUSH2 0x1785 JUMP JUMPDEST SWAP7 POP PUSH2 0x17FE DUP4 PUSH2 0x17A8 JUMP JUMPDEST SWAP3 POP POP PUSH1 0x1 DUP2 ADD SWAP1 POP PUSH2 0x17D7 JUMP JUMPDEST POP POP POP POP POP POP JUMP JUMPDEST PUSH1 0x0 DUP3 DUP3 MSTORE PUSH1 0x20 DUP3 ADD SWAP1 POP SWAP3 SWAP2 POP POP JUMP JUMPDEST PUSH1 0x0 DUP1 REVERT JUMPDEST PUSH1 0x0 PUSH2 0x1836 DUP4 DUP6 PUSH2 0x1814 JUMP JUMPDEST SWAP4 POP PUSH32 0x7FFFFFFFFFFFFFFFFFFFFFFFFFFFFFFFFFFFFFFFFFFFFFFFFFFFFFFFFFFFFFF DUP4 GT ISZERO PUSH2 0x1869 JUMPI PUSH2 0x1868 PUSH2 0x1825 JUMP JUMPDEST JUMPDEST PUSH1 0x20 DUP4 MUL SWAP3 POP PUSH2 0x187A DUP4 DUP6 DUP5 PUSH2 0x173C JUMP JUMPDEST DUP3 DUP5 ADD SWAP1 POP SWAP4 SWAP3 POP POP POP JUMP JUMPDEST PUSH1 0x0 PUSH2 0x120 DUP3 ADD SWAP1 POP PUSH2 0x189C PUSH1 0x0 DUP4 ADD DUP9 PUSH2 0x1745 JUMP JUMPDEST PUSH2 0x18A9 PUSH1 0x40 DUP4 ADD DUP8 PUSH2 0x17B5 JUMP JUMPDEST PUSH2 0x18B6 PUSH1 0xC0 DUP4 ADD DUP7 PUSH2 0x1745 JUMP JUMPDEST DUP2 DUP2 SUB PUSH2 0x100 DUP4 ADD MSTORE PUSH2 0x18CA DUP2 DUP5 DUP7 PUSH2 0x182A JUMP JUMPDEST SWAP1 POP SWAP7 SWAP6 POP POP POP POP POP POP JUMP JUMPDEST PUSH2 0x18DF DUP2 PUSH2 0x1516 JUMP JUMPDEST DUP2 EQ PUSH2 0x18EA JUMPI PUSH1 0x0 DUP1 REVERT JUMPDEST POP JUMP JUMPDEST PUSH1 0x0 DUP2 MLOAD SWAP1 POP PUSH2 0x18FC DUP2 PUSH2 0x18D6 JUMP JUMPDEST SWAP3 SWAP2 POP POP JUMP JUMPDEST PUSH1 0x0 PUSH1 0x20 DUP3 DUP5 SUB SLT ISZERO PUSH2 0x1918 JUMPI PUSH2 0x1917 PUSH2 0x139B JUMP JUMPDEST JUMPDEST PUSH1 0x0 PUSH2 0x1926 DUP5 DUP3 DUP6 ADD PUSH2 0x18ED JUMP JUMPDEST SWAP2 POP POP SWAP3 SWAP2 POP POP JUMP JUMPDEST PUSH32 0x61746F6D6963207175657279207369676E61747572652070726F6F6620697320 PUSH1 0x0 DUP3 ADD MSTORE PUSH32 0x6E6F742076616C69640000000000000000000000000000000000000000000000 PUSH1 0x20 DUP3 ADD MSTORE POP JUMP JUMPDEST PUSH1 0x0 PUSH2 0x198B PUSH1 0x29 DUP4 PUSH2 0x15D5 JUMP JUMPDEST SWAP2 POP PUSH2 0x1996 DUP3 PUSH2 0x192F JUMP JUMPDEST PUSH1 0x40 DUP3 ADD SWAP1 POP SWAP2 SWAP1 POP JUMP JUMPDEST PUSH1 0x0 PUSH1 0x20 DUP3 ADD SWAP1 POP DUP2 DUP2 SUB PUSH1 0x0 DUP4 ADD MSTORE PUSH2 0x19BA DUP2 PUSH2 0x197E JUMP JUMPDEST SWAP1 POP SWAP2 SWAP1 POP JUMP JUMPDEST PUSH32 0x4E487B7100000000000000000000000000000000000000000000000000000000 PUSH1 0x0 MSTORE PUSH1 0x32 PUSH1 0x4 MSTORE PUSH1 0x24 PUSH1 0x0 REVERT JUMPDEST PUSH32 0x7175657279206861736820646F6573206E6F74206D6174636820746865207265 PUSH1 0x0 DUP3 ADD MSTORE PUSH32 0x71756573746564206F6E65000000000000000000000000000000000000000000 PUSH1 0x20 DUP3 ADD MSTORE POP JUMP JUMPDEST PUSH1 0x0 PUSH2 0x1A4C PUSH1 0x2B DUP4 PUSH2 0x15D5 JUMP JUMPDEST SWAP2 POP PUSH2 0x1A57 DUP3 PUSH2 0x19F0 JUMP JUMPDEST PUSH1 0x40 DUP3 ADD SWAP1 POP SWAP2 SWAP1 POP JUMP JUMPDEST PUSH1 0x0 PUSH1 0x20 DUP3 ADD SWAP1 POP DUP2 DUP2 SUB PUSH1 0x0 DUP4 ADD MSTORE PUSH2 0x1A7B DUP2 PUSH2 0x1A3F JUMP JUMPDEST SWAP1 POP SWAP2 SWAP1 POP JUMP JUMPDEST PUSH1 0x0 DUP1 REVERT JUMPDEST PUSH32 0x4E487B7100000000000000000000000000000000000000000000000000000000 PUSH1 0x0 MSTORE PUSH1 0x41 PUSH1 0x4 MSTORE PUSH1 0x24 PUSH1 0x0 REVERT JUMPDEST PUSH2 0x1ABF DUP3 PUSH2 0x1610 JUMP JUMPDEST DUP2 ADD DUP2 DUP2 LT PUSH8 0xFFFFFFFFFFFFFFFF DUP3 GT OR ISZERO PUSH2 0x1ADE JUMPI PUSH2 0x1ADD PUSH2 0x1A87 JUMP JUMPDEST JUMPDEST DUP1 PUSH1 0x40 MSTORE POP POP POP JUMP JUMPDEST PUSH1 0x0 PUSH2 0x1AF1 PUSH2 0x1391 JUMP JUMPDEST SWAP1 POP PUSH2 0x1AFD DUP3 DUP3 PUSH2 0x1AB6 JUMP JUMPDEST SWAP2 SWAP1 POP JUMP JUMPDEST PUSH1 0x0 DUP2 MLOAD SWAP1 POP PUSH2 0x1B11 DUP2 PUSH2 0x144E JUMP JUMPDEST SWAP3 SWAP2 POP POP JUMP JUMPDEST PUSH1 0x0 PUSH1 0xC0 DUP3 DUP5 SUB SLT ISZERO PUSH2 0x1B2D JUMPI PUSH2 0x1B2C PUSH2 0x1A82 JUMP JUMPDEST JUMPDEST PUSH2 0x1B37 PUSH1 0xC0 PUSH2 0x1AE7 JUMP JUMPDEST SWAP1 POP PUSH1 0x0 PUSH2 0x1B47 DUP5 DUP3 DUP6 ADD PUSH2 0x1B02 JUMP JUMPDEST PUSH1 0x0 DUP4 ADD MSTORE POP PUSH1 0x20 PUSH2 0x1B5B DUP5 DUP3 DUP6 ADD PUSH2 0x1B02 JUMP JUMPDEST PUSH1 0x20 DUP4 ADD MSTORE POP PUSH1 0x40 PUSH2 0x1B6F DUP5 DUP3 DUP6 ADD PUSH2 0x1B02 JUMP JUMPDEST PUSH1 0x40 DUP4 ADD MSTORE POP PUSH1 0x60 PUSH2 0x1B83 DUP5 DUP3 DUP6 ADD PUSH2 0x1B02 JUMP JUMPDEST PUSH1 0x60 DUP4 ADD MSTORE POP PUSH1 0x80 PUSH2 0x1B97 DUP5 DUP3 DUP6 ADD PUSH2 0x1B02 JUMP JUMPDEST PUSH1 0x80 DUP4 ADD MSTORE POP PUSH1 0xA0 PUSH2 0x1BAB DUP5 DUP3 DUP6 ADD PUSH2 0x1B02 JUMP JUMPDEST PUSH1 0xA0 DUP4 ADD MSTORE POP SWAP3 SWAP2 POP POP JUMP JUMPDEST PUSH1 0x0 PUSH1 0xC0 DUP3 DUP5 SUB SLT ISZERO PUSH2 0x1BCD JUMPI PUSH2 0x1BCC PUSH2 0x139B JUMP JUMPDEST JUMPDEST PUSH1 0x0 PUSH2 0x1BDB DUP5 DUP3 DUP6 ADD PUSH2 0x1B17 JUMP JUMPDEST SWAP2 POP POP SWAP3 SWAP2 POP POP JUMP JUMPDEST PUSH32 0x4769737420726F6F742073746174652069736E277420696E2073746174652063 PUSH1 0x0 DUP3 ADD MSTORE PUSH32 0x6F6E747261637400000000000000000000000000000000000000000000000000 PUSH1 0x20 DUP3 ADD MSTORE POP JUMP JUMPDEST PUSH1 0x0 PUSH2 0x1C40 PUSH1 0x27 DUP4 PUSH2 0x15D5 JUMP JUMPDEST SWAP2 POP PUSH2 0x1C4B DUP3 PUSH2 0x1BE4 JUMP JUMPDEST PUSH1 0x40 DUP3 ADD SWAP1 POP SWAP2 SWAP1 POP JUMP JUMPDEST PUSH1 0x0 PUSH1 0x20 DUP3 ADD SWAP1 POP DUP2 DUP2 SUB PUSH1 0x0 DUP4 ADD MSTORE PUSH2 0x1C6F DUP2 PUSH2 0x1C33 JUMP JUMPDEST SWAP1 POP SWAP2 SWAP1 POP JUMP JUMPDEST PUSH1 0x0 PUSH1 0xE0 DUP3 DUP5 SUB SLT ISZERO PUSH2 0x1C8C JUMPI PUSH2 0x1C8B PUSH2 0x1A82 JUMP JUMPDEST JUMPDEST PUSH2 0x1C96 PUSH1 0xE0 PUSH2 0x1AE7 JUMP JUMPDEST SWAP1 POP PUSH1 0x0 PUSH2 0x1CA6 DUP5 DUP3 DUP6 ADD PUSH2 0x1B02 JUMP JUMPDEST PUSH1 0x0 DUP4 ADD MSTORE POP PUSH1 0x20 PUSH2 0x1CBA DUP5 DUP3 DUP6 ADD PUSH2 0x1B02 JUMP JUMPDEST PUSH1 0x20 DUP4 ADD MSTORE POP PUSH1 0x40 PUSH2 0x1CCE DUP5 DUP3 DUP6 ADD PUSH2 0x1B02 JUMP JUMPDEST PUSH1 0x40 DUP4 ADD MSTORE POP PUSH1 0x60 PUSH2 0x1CE2 DUP5 DUP3 DUP6 ADD PUSH2 0x1B02 JUMP JUMPDEST PUSH1 0x60 DUP4 ADD MSTORE POP PUSH1 0x80 PUSH2 0x1CF6 DUP5 DUP3 DUP6 ADD PUSH2 0x1B02 JUMP JUMPDEST PUSH1 0x80 DUP4 ADD MSTORE POP PUSH1 0xA0 PUSH2 0x1D0A DUP5 DUP3 DUP6 ADD PUSH2 0x1B02 JUMP JUMPDEST PUSH1 0xA0 DUP4 ADD MSTORE POP PUSH1 0xC0 PUSH2 0x1D1E DUP5 DUP3 DUP6 ADD PUSH2 0x1B02 JUMP JUMPDEST PUSH1 0xC0 DUP4 ADD MSTORE POP SWAP3 SWAP2 POP POP JUMP JUMPDEST PUSH1 0x0 PUSH1 0xE0 DUP3 DUP5 SUB SLT ISZERO PUSH2 0x1D40 JUMPI PUSH2 0x1D3F PUSH2 0x139B JUMP JUMPDEST JUMPDEST PUSH1 0x0 PUSH2 0x1D4E DUP5 DUP3 DUP6 ADD PUSH2 0x1C76 JUMP JUMPDEST SWAP2 POP POP SWAP3 SWAP2 POP POP JUMP JUMPDEST PUSH32 0x49737375657220737461746520646F65736E277420657869737420696E207374 PUSH1 0x0 DUP3 ADD MSTORE PUSH32 0x61746520636F6E74726163740000000000000000000000000000000000000000 PUSH1 0x20 DUP3 ADD MSTORE POP JUMP JUMPDEST PUSH1 0x0 PUSH2 0x1DB3 PUSH1 0x2C DUP4 PUSH2 0x15D5 JUMP JUMPDEST SWAP2 POP PUSH2 0x1DBE DUP3 PUSH2 0x1D57 JUMP JUMPDEST PUSH1 0x40 DUP3 ADD SWAP1 POP SWAP2 SWAP1 POP JUMP JUMPDEST PUSH1 0x0 PUSH1 0x20 DUP3 ADD SWAP1 POP DUP2 DUP2 SUB PUSH1 0x0 DUP4 ADD MSTORE PUSH2 0x1DE2 DUP2 PUSH2 0x1DA6 JUMP JUMPDEST SWAP1 POP SWAP2 SWAP1 POP JUMP JUMPDEST PUSH32 0x4E6F6E2D5265766F636174696F6E2073746174652069736E277420696E207374 PUSH1 0x0 DUP3 ADD MSTORE PUSH32 0x61746520636F6E747261637420616E64206E6F742067656E6573697300000000 PUSH1 0x20 DUP3 ADD MSTORE POP JUMP JUMPDEST PUSH1 0x0 PUSH2 0x1E45 PUSH1 0x3C DUP4 PUSH2 0x15D5 JUMP JUMPDEST SWAP2 POP PUSH2 0x1E50 DUP3 PUSH2 0x1DE9 JUMP JUMPDEST PUSH1 0x40 DUP3 ADD SWAP1 POP SWAP2 SWAP1 POP JUMP JUMPDEST PUSH1 0x0 PUSH1 0x20 DUP3 ADD SWAP1 POP DUP2 DUP2 SUB PUSH1 0x0 DUP4 ADD MSTORE PUSH2 0x1E74 DUP2 PUSH2 0x1E38 JUMP JUMPDEST SWAP1 POP SWAP2 SWAP1 POP JUMP JUMPDEST PUSH32 0x737461746520696E207472616E736974696F6E20696E666F20636F6E7461696E PUSH1 0x0 DUP3 ADD MSTORE PUSH32 0x7320696E76616C69642069640000000000000000000000000000000000000000 PUSH1 0x20 DUP3 ADD MSTORE POP JUMP JUMPDEST PUSH1 0x0 PUSH2 0x1ED7 PUSH1 0x2C DUP4 PUSH2 0x15D5 JUMP JUMPDEST SWAP2 POP PUSH2 0x1EE2 DUP3 PUSH2 0x1E7B JUMP JUMPDEST PUSH1 0x40 DUP3 ADD SWAP1 POP SWAP2 SWAP1 POP JUMP JUMPDEST PUSH1 0x0 PUSH1 0x20 DUP3 ADD SWAP1 POP DUP2 DUP2 SUB PUSH1 0x0 DUP4 ADD MSTORE PUSH2 0x1F06 DUP2 PUSH2 0x1ECA JUMP JUMPDEST SWAP1 POP SWAP2 SWAP1 POP JUMP JUMPDEST PUSH32 0x4E6F6E2D4C617465737420737461746520646F65736E277420636F6E7461696E PUSH1 0x0 DUP3 ADD MSTORE PUSH32 0x207265706C6163656D656E7420696E666F726D6174696F6E0000000000000000 PUSH1 0x20 DUP3 ADD MSTORE POP JUMP JUMPDEST PUSH1 0x0 PUSH2 0x1F69 PUSH1 0x38 DUP4 PUSH2 0x15D5 JUMP JUMPDEST SWAP2 POP PUSH2 0x1F74 DUP3 PUSH2 0x1F0D JUMP JUMPDEST PUSH1 0x40 DUP3 ADD SWAP1 POP SWAP2 SWAP1 POP JUMP JUMPDEST PUSH1 0x0 PUSH1 0x20 DUP3 ADD SWAP1 POP DUP2 DUP2 SUB PUSH1 0x0 DUP4 ADD MSTORE PUSH2 0x1F98 DUP2 PUSH2 0x1F5C JUMP JUMPDEST SWAP1 POP SWAP2 SWAP1 POP JUMP JUMPDEST PUSH32 0x4E487B7100000000000000000000000000000000000000000000000000000000 PUSH1 0x0 MSTORE PUSH1 0x11 PUSH1 0x4 MSTORE PUSH1 0x24 PUSH1 0x0 REVERT JUMPDEST PUSH1 0x0 PUSH2 0x1FD9 DUP3 PUSH2 0x12C3 JUMP JUMPDEST SWAP2 POP PUSH2 0x1FE4 DUP4 PUSH2 0x12C3 JUMP JUMPDEST SWAP3 POP DUP3 DUP3 SUB SWAP1 POP DUP2 DUP2 GT ISZERO PUSH2 0x1FFC JUMPI PUSH2 0x1FFB PUSH2 0x1F9F JUMP JUMPDEST JUMPDEST SWAP3 SWAP2 POP POP JUMP JUMPDEST PUSH32 0x4E6F6E2D5265766F636174696F6E207374617465206F66204973737565722065 PUSH1 0x0 DUP3 ADD MSTORE PUSH32 0x7870697265640000000000000000000000000000000000000000000000000000 PUSH1 0x20 DUP3 ADD MSTORE POP JUMP JUMPDEST PUSH1 0x0 PUSH2 0x205E PUSH1 0x26 DUP4 PUSH2 0x15D5 JUMP JUMPDEST SWAP2 POP PUSH2 0x2069 DUP3 PUSH2 0x2002 JUMP JUMPDEST PUSH1 0x40 DUP3 ADD SWAP1 POP SWAP2 SWAP1 POP JUMP JUMPDEST PUSH1 0x0 PUSH1 0x20 DUP3 ADD SWAP1 POP DUP2 DUP2 SUB PUSH1 0x0 DUP4 ADD MSTORE PUSH2 0x208D DUP2 PUSH2 0x2051 JUMP JUMPDEST SWAP1 POP SWAP2 SWAP1 POP JUMP JUMPDEST PUSH32 0x496E697469616C697A61626C653A20636F6E747261637420697320616C726561 PUSH1 0x0 DUP3 ADD MSTORE PUSH32 0x647920696E697469616C697A6564000000000000000000000000000000000000 PUSH1 0x20 DUP3 ADD MSTORE POP JUMP JUMPDEST PUSH1 0x0 PUSH2 0x20F0 PUSH1 0x2E DUP4 PUSH2 0x15D5 JUMP JUMPDEST SWAP2 POP PUSH2 0x20FB DUP3 PUSH2 0x2094 JUMP JUMPDEST PUSH1 0x40 DUP3 ADD SWAP1 POP SWAP2 SWAP1 POP JUMP JUMPDEST PUSH1 0x0 PUSH1 0x20 DUP3 ADD SWAP1 POP DUP2 DUP2 SUB PUSH1 0x0 DUP4 ADD MSTORE PUSH2 0x211F DUP2 PUSH2 0x20E3 JUMP JUMPDEST SWAP1 POP SWAP2 SWAP1 POP JUMP JUMPDEST PUSH1 0x0 DUP2 SWAP1 POP SWAP2 SWAP1 POP JUMP JUMPDEST PUSH1 0x0 PUSH1 0xFF DUP3 AND SWAP1 POP SWAP2 SWAP1 POP JUMP JUMPDEST PUSH1 0x0 PUSH2 0x2158 PUSH2 0x2153 PUSH2 0x214E DUP5 PUSH2 0x2126 JUMP JUMPDEST PUSH2 0x1317 JUMP JUMPDEST PUSH2 0x2130 JUMP JUMPDEST SWAP1 POP SWAP2 SWAP1 POP JUMP JUMPDEST PUSH2 0x2168 DUP2 PUSH2 0x213D JUMP JUMPDEST DUP3 MSTORE POP POP JUMP JUMPDEST PUSH1 0x0 PUSH1 0x20 DUP3 ADD SWAP1 POP PUSH2 0x2183 PUSH1 0x0 DUP4 ADD DUP5 PUSH2 0x215F JUMP JUMPDEST SWAP3 SWAP2 POP POP JUMP JUMPDEST PUSH32 0x4F776E61626C653A206E6577206F776E657220697320746865207A65726F2061 PUSH1 0x0 DUP3 ADD MSTORE PUSH32 0x6464726573730000000000000000000000000000000000000000000000000000 PUSH1 0x20 DUP3 ADD MSTORE POP JUMP JUMPDEST PUSH1 0x0 PUSH2 0x21E5 PUSH1 0x26 DUP4 PUSH2 0x15D5 JUMP JUMPDEST SWAP2 POP PUSH2 0x21F0 DUP3 PUSH2 0x2189 JUMP JUMPDEST PUSH1 0x40 DUP3 ADD SWAP1 POP SWAP2 SWAP1 POP JUMP JUMPDEST PUSH1 0x0 PUSH1 0x20 DUP3 ADD SWAP1 POP DUP2 DUP2 SUB PUSH1 0x0 DUP4 ADD MSTORE PUSH2 0x2214 DUP2 PUSH2 0x21D8 JUMP JUMPDEST SWAP1 POP SWAP2 SWAP1 POP JUMP JUMPDEST PUSH32 0x436865636B73756D207265717569726573203239206C656E6774682061727261 PUSH1 0x0 DUP3 ADD MSTORE PUSH32 0x7900000000000000000000000000000000000000000000000000000000000000 PUSH1 0x20 DUP3 ADD MSTORE POP JUMP JUMPDEST PUSH1 0x0 PUSH2 0x2277 PUSH1 0x21 DUP4 PUSH2 0x15D5 JUMP JUMPDEST SWAP2 POP PUSH2 0x2282 DUP3 PUSH2 0x221B JUMP JUMPDEST PUSH1 0x40 DUP3 ADD SWAP1 POP SWAP2 SWAP1 POP JUMP JUMPDEST PUSH1 0x0 PUSH1 0x20 DUP3 ADD SWAP1 POP DUP2 DUP2 SUB PUSH1 0x0 DUP4 ADD MSTORE PUSH2 0x22A6 DUP2 PUSH2 0x226A JUMP JUMPDEST SWAP1 POP SWAP2 SWAP1 POP JUMP JUMPDEST PUSH1 0x0 PUSH2 0xFFFF DUP3 AND SWAP1 POP SWAP2 SWAP1 POP JUMP JUMPDEST PUSH1 0x0 DUP2 PUSH1 0xF0 SHL SWAP1 POP SWAP2 SWAP1 POP JUMP JUMPDEST PUSH1 0x0 PUSH2 0x22D3 DUP3 PUSH2 0x22BB JUMP JUMPDEST SWAP1 POP SWAP2 SWAP1 POP JUMP JUMPDEST PUSH2 0x22EB PUSH2 0x22E6 DUP3 PUSH2 0x22AD JUMP JUMPDEST PUSH2 0x22C8 JUMP JUMPDEST DUP3 MSTORE POP POP JUMP JUMPDEST PUSH1 0x0 PUSH2 0x22FD DUP3 DUP5 PUSH2 0x22DA JUMP JUMPDEST PUSH1 0x2 DUP3 ADD SWAP2 POP DUP2 SWAP1 POP SWAP3 SWAP2 POP POP JUMP JUMPDEST PUSH32 0x69644279746573207265717569726573203331206C656E677468206172726179 PUSH1 0x0 DUP3 ADD MSTORE POP JUMP JUMPDEST PUSH1 0x0 PUSH2 0x2342 PUSH1 0x20 DUP4 PUSH2 0x15D5 JUMP JUMPDEST SWAP2 POP PUSH2 0x234D DUP3 PUSH2 0x230C JUMP JUMPDEST PUSH1 0x20 DUP3 ADD SWAP1 POP SWAP2 SWAP1 POP JUMP JUMPDEST PUSH1 0x0 PUSH1 0x20 DUP3 ADD SWAP1 POP DUP2 DUP2 SUB PUSH1 0x0 DUP4 ADD MSTORE PUSH2 0x2371 DUP2 PUSH2 0x2335 JUMP JUMPDEST SWAP1 POP SWAP2 SWAP1 POP JUMP JUMPDEST PUSH32 0x496E697469616C697A61626C653A20636F6E7472616374206973206E6F742069 PUSH1 0x0 DUP3 ADD MSTORE PUSH32 0x6E697469616C697A696E67000000000000000000000000000000000000000000 PUSH1 0x20 DUP3 ADD MSTORE POP JUMP JUMPDEST PUSH1 0x0 PUSH2 0x23D4 PUSH1 0x2B DUP4 PUSH2 0x15D5 JUMP JUMPDEST SWAP2 POP PUSH2 0x23DF DUP3 PUSH2 0x2378 JUMP JUMPDEST PUSH1 0x40 DUP3 ADD SWAP1 POP SWAP2 SWAP1 POP JUMP JUMPDEST PUSH1 0x0 PUSH1 0x20 DUP3 ADD SWAP1 POP DUP2 DUP2 SUB PUSH1 0x0 DUP4 ADD MSTORE PUSH2 0x2403 DUP2 PUSH2 0x23C7 JUMP JUMPDEST SWAP1 POP SWAP2 SWAP1 POP JUMP JUMPDEST PUSH32 0x4F776E61626C653A2063616C6C6572206973206E6F7420746865206F776E6572 PUSH1 0x0 DUP3 ADD MSTORE POP JUMP JUMPDEST PUSH1 0x0 PUSH2 0x2440 PUSH1 0x20 DUP4 PUSH2 0x15D5 JUMP JUMPDEST SWAP2 POP PUSH2 0x244B DUP3 PUSH2 0x240A JUMP JUMPDEST PUSH1 0x20 DUP3 ADD SWAP1 POP SWAP2 SWAP1 POP JUMP JUMPDEST PUSH1 0x0 PUSH1 0x20 DUP3 ADD SWAP1 POP DUP2 DUP2 SUB PUSH1 0x0 DUP4 ADD MSTORE PUSH2 0x246F DUP2 PUSH2 0x2433 JUMP JUMPDEST SWAP1 POP SWAP2 SWAP1 POP JUMP JUMPDEST PUSH1 0x0 PUSH2 0x2481 DUP3 PUSH2 0x12C3 JUMP JUMPDEST SWAP2 POP PUSH2 0x248C DUP4 PUSH2 0x12C3 JUMP JUMPDEST SWAP3 POP DUP3 DUP3 ADD SWAP1 POP DUP1 DUP3 GT ISZERO PUSH2 0x24A4 JUMPI PUSH2 0x24A3 PUSH2 0x1F9F JUMP JUMPDEST JUMPDEST SWAP3 SWAP2 POP POP JUMP JUMPDEST PUSH32 0x736C6963655F6F766572666C6F77000000000000000000000000000000000000 PUSH1 0x0 DUP3 ADD MSTORE POP JUMP JUMPDEST PUSH1 0x0 PUSH2 0x24E0 PUSH1 0xE DUP4 PUSH2 0x15D5 JUMP JUMPDEST SWAP2 POP PUSH2 0x24EB DUP3 PUSH2 0x24AA JUMP JUMPDEST PUSH1 0x20 DUP3 ADD SWAP1 POP SWAP2 SWAP1 POP JUMP JUMPDEST PUSH1 0x0 PUSH1 0x20 DUP3 ADD SWAP1 POP DUP2 DUP2 SUB PUSH1 0x0 DUP4 ADD MSTORE PUSH2 0x250F DUP2 PUSH2 0x24D3 JUMP JUMPDEST SWAP1 POP SWAP2 SWAP1 POP JUMP JUMPDEST PUSH32 0x736C6963655F6F75744F66426F756E6473000000000000000000000000000000 PUSH1 0x0 DUP3 ADD MSTORE POP JUMP JUMPDEST PUSH1 0x0 PUSH2 0x254C PUSH1 0x11 DUP4 PUSH2 0x15D5 JUMP JUMPDEST SWAP2 POP PUSH2 0x2557 DUP3 PUSH2 0x2516 JUMP JUMPDEST PUSH1 0x20 DUP3 ADD SWAP1 POP SWAP2 SWAP1 POP JUMP JUMPDEST PUSH1 0x0 PUSH1 0x20 DUP3 ADD SWAP1 POP DUP2 DUP2 SUB PUSH1 0x0 DUP4 ADD MSTORE PUSH2 0x257B DUP2 PUSH2 0x253F JUMP JUMPDEST SWAP1 POP SWAP2 SWAP1 POP JUMP JUMPDEST PUSH1 0x0 PUSH2 0x258D DUP3 PUSH2 0x22AD JUMP JUMPDEST SWAP2 POP PUSH2 0x2598 DUP4 PUSH2 0x22AD JUMP JUMPDEST SWAP3 POP DUP3 DUP3 ADD SWAP1 POP PUSH2 0xFFFF DUP2 GT ISZERO PUSH2 0x25B2 JUMPI PUSH2 0x25B1 PUSH2 0x1F9F JUMP JUMPDEST JUMPDEST SWAP3 SWAP2 POP POP JUMP JUMPDEST PUSH1 0x0 PUSH2 0x25C3 DUP3 PUSH2 0x12C3 JUMP JUMPDEST SWAP2 POP PUSH32 0xFFFFFFFFFFFFFFFFFFFFFFFFFFFFFFFFFFFFFFFFFFFFFFFFFFFFFFFFFFFFFFFF DUP3 SUB PUSH2 0x25F5 JUMPI PUSH2 0x25F4 PUSH2 0x1F9F JUMP JUMPDEST JUMPDEST PUSH1 0x1 DUP3 ADD SWAP1 POP SWAP2 SWAP1 POP JUMP INVALID PUSH4 0x72656465 PUSH15 0x7469616C41746F6D69635175657279 MSTORE8 PUSH10 0x6756324F6E436861696E LOG2 PUSH5 0x6970667358 0x22 SLT KECCAK256 0x29 BLOCKHASH CALLDATASIZE CALL 0x5D CALLER DUP11 0x24 0xCC 0xBF SWAP8 RETURNDATACOPY 0x2B 0xD9 0x25 SLT 0xB2 SLT MSTORE DUP12 DUP8 SWAP9 DUP13 PUSH32 0xD56286D4DCD56B8164736F6C6343000811003300000000000000000000000000 "},"methodIdentifiers":{"getChallengeInputIndex()":"9f442afa","getCircuitId()":"59a2aeaa","initialize(address,address)":"485cc955","owner()":"8da5cb5b","renounceOwnership()":"715018a6","revocationStateExpirationTime()":"23962482","setRevocationStateExpirationTime(uint256)":"e79ce794","state()":"c19d93fb","transferOwnership(address)":"f2fde38b","verifier()":"2b7ac3f3","verify(uint256[],uint256[2],uint256[2][2],uint256[2],uint256)":"434661ef"}},"storageLayout":{"storage":[{"astId":138,"contract":"contracts/validators/CredentialAtomicQuerySigValidator.sol:CredentialAtomicQuerySigValidator","label":"_initialized","offset":0,"slot":"0","type":"t_uint8"},{"astId":141,"contract":"contracts/validators/CredentialAtomicQuerySigValidator.sol:CredentialAtomicQuerySigValidator","label":"_initializing","offset":1,"slot":"0","type":"t_bool"},{"astId":625,"contract":"contracts/validators/CredentialAtomicQuerySigValidator.sol:CredentialAtomicQuerySigValidator","label":"__gap","offset":0,"slot":"1","type":"t_array(t_uint256)50_storage"},{"astId":10,"contract":"contracts/validators/CredentialAtomicQuerySigValidator.sol:CredentialAtomicQuerySigValidator","label":"_owner","offset":0,"slot":"51","type":"t_address"},{"astId":130,"contract":"contracts/validators/CredentialAtomicQuerySigValidator.sol:CredentialAtomicQuerySigValidator","label":"__gap","offset":0,"slot":"52","type":"t_array(t_uint256)49_storage"},{"astId":2872,"contract":"contracts/validators/CredentialAtomicQuerySigValidator.sol:CredentialAtomicQuerySigValidator","label":"verifier","offset":0,"slot":"101","type":"t_contract(IVerifier)1750"},{"astId":2875,"contract":"contracts/validators/CredentialAtomicQuerySigValidator.sol:CredentialAtomicQuerySigValidator","label":"state","offset":0,"slot":"102","type":"t_contract(IState)1725"},{"astId":2877,"contract":"contracts/validators/CredentialAtomicQuerySigValidator.sol:CredentialAtomicQuerySigValidator","label":"revocationStateExpirationTime","offset":0,"slot":"103","type":"t_uint256"}],"types":{"t_address":{"encoding":"inplace","label":"address","numberOfBytes":"20"},"t_array(t_uint256)49_storage":{"base":"t_uint256","encoding":"inplace","label":"uint256[49]","numberOfBytes":"1568"},"t_array(t_uint256)50_storage":{"base":"t_uint256","encoding":"inplace","label":"uint256[50]","numberOfBytes":"1600"},"t_bool":{"encoding":"inplace","label":"bool","numberOfBytes":"1"},"t_contract(IState)1725":{"encoding":"inplace","label":"contract IState","numberOfBytes":"20"},"t_contract(IVerifier)1750":{"encoding":"inplace","label":"contract IVerifier","numberOfBytes":"20"},"t_uint256":{"encoding":"inplace","label":"uint256","numberOfBytes":"32"},"t_uint8":{"encoding":"inplace","label":"uint8","numberOfBytes":"1"}}}}}}